S00F000074746E2D6162702E737265635F
S11300000C947F020C94A7020C94A7020C942C2548
S11300100C942C250C942C250C94A7020C94A70268
S11300200C94A7020C94A7020C94A7020C94A702A8
S11300300C94A7020C94A7020C94A7020C94A70298
S11300400C9454310C94A7020C94322F0C94642F0A
S11300500C94A7020C94A7020C94A7020C94A70278
S11300600C9499290C94A7028E0491049404970487
S11300709A049D04A004A304A604A904E004E304D0
S1130080E604E904EC0486118A1132120812011202
S1130090561230133013301330133013301330131F
S11300A0301330139812B61200407A10F35A00A09D
S11300B0724E18090010A5D4E80000E8764817002D
S11300C000E40B54020000CA9A3B000000E1F5056D
S11300D0000080969800000040420F000000A086B7
S11300E001000000102700000000E80300000000E9
S11300F06400000000000A0000000000010000008D
S113010000002C76D888DC674F0823DFC1DFAE59A6
S1130110E1B1B796E5E3E453C63AE651997696E839
S1130120E6C28426EB898C9B62ED407C6FFCEFBCBD
S11301309C9F40F2BAA56FA5F490055A2AF75C93E8
S11301406B6CF9676DC11BFCE0E40D47FEF520E61E
S1130150B500D0ED902E0300943577050080841E01
S1130160080000204E0A000000C80C333333330F5C
S1130170986E12831141EF8D2114893BE65516CFF9
S1130180FEE6DB18D1844B381BF77C1D901DA4BB05
S1130190E424203284725E228100C9F124ECA1E5BA
S11301A03D275374617274696E6700556E6B6E6F90
S11301B0776E206576656E740045565F4C494E4BEC
S11301C05F414C4956450045565F4C494E4B5F4490
S11301D04541440045565F5258434F4D504C455499
S11301E0450045565F52455345540045565F4C4FB4
S11301F053545F5453594E430020627974657320FD
S11302006F66207061796C6F616400526563656923
S11302107665642000526563656976656420616370
S11302206B0045565F5458434F4D504C4554452040
S113023028696E636C756465732077616974696E8F
S11302406720666F722052582077696E646F7773E7
S1130250290045565F52454A4F494E5F4641494C35
S113026045440045565F4A4F494E5F4641494C4517
S1130270440045565F524655310045565F4A4F4942
S11302804E45440045565F4A4F494E494E47004546
S1130290565F424541434F4E5F545241434B4544A0
S11302A00045565F424541434F4E5F4D49535345C8
S11302B0440045565F424541434F4E5F464F554EBD
S11302C0440045565F5343414E5F54494D454F5595
S11302D054005061636B65742071756575656400C5
S11302E04F505F5458525850454E442C206E6F74F2
S11302F02073656E64696E6700BC69C60BF748A11C
S11303004C29761CD8F5E43D41208CEF9A3CBBB4D3
S11303109B08454C5EAF8C55EA637C777BF26B6F30
S1130320C53001672BFED7AB76CA82C97DFA59471F
S1130330F0ADD4A2AF9CA472C0B7FD9326363FF7AC
S1130340CC34A5E5F171D8311504C723C31896053B
S11303509A071280E2EB27B27509832C1A1B6E5A96
S1130360A0523BD6B329E32F8453D100ED20FCB136
S11303705B6ACBBE394A4C58CFD0EFAAFB434D330E
S11303808545F9027F503C9FA851A3408F929D3828
S1130390F5BCB6DA2110FFF3D2CD0C13EC5F974411
S11303A017C4A77E3D645D197360814FDC222A90D7
S11303B08846EEB814DE5E0BDBE0323A0A490624C6
S11303C05CC2D3AC629195E479E7C8376D8DD54EA4
S11303D0A96C56F4EA657AAE08BA78252E1CA6B440
S11303E0C6E8DD741F4BBD8B8A703EB5664803F6C4
S11303F00E613557B986C11D9EE1F8981169D98EF1
S1130400949B1E87E9CE5528DF8CA1890DBFE64257
S11304106841992D0FB054BB16A027BE33E034C1F8
S1130420332042C433A127BE33E134C1332142C453
S113043033000400000002000000010000800000FE
S11304400040000000200000001000000005000033
S113045000000000010001000100002020200E1116
S1130460140C0F12090C0F06090C030609000306ED
S1130470140E0B080502000000000000000000003C
S1130480FF0605040302010900FF000000006700E5
S1130490CC00B80154039D07C040000000000800D0
S11304A00201000003040700000000000000000136
S11304B002040810204080010204081020010204F4
S11304C008102004040404040404040202020202C6
S11304D00203030303030300000000230026002992
S11304E00000000000250028002B0000000000246C
S11304F00027002A000077050B092D2C942F1124C6
S11305001FBECFEFD8E0DEBFCDBF12E0A0E0B1E068
S1130510E4E2F7E702C005900D92A637B107D9F7D8
S113052026E0A6E7B2E001C01D92A934B207E1F7C4
S113053012E0CFE7D2E004C02197FE010E942635E5
S1130540CB37D107C9F70E94C22F0C94903B0C946F
S113055000000895089508955F926F927F928F929C
S11305609F92AF92BF92CF92DF92EF92FF920F933E
S11305701F93CF93DF93CDB7DEB7A4970FB6F8944C
S1130580DEBF0FBECDBF63E08DE992E00E94EA2496
S1130590C0909D02D0909E02E0909F02F090A00235
S11305A08090A1029090A202A090A302B090A40215
S11305B0C701B6010E94A32C762EC501B4010E9486
S11305C0A32C062F672D70E080E090E00E94D42CCD
S11305D09B01AC01C701B6010E94312CAB01BC01E7
S11305E021E0CE014F960E94EA33602F70E080E054
S11305F090E00E94D42C9B01AC01C501B4010E947F
S1130600312CAB01BC0121E0CE0149960E94EA33B2
S11306102BA13CA142E050E0BE01615E7F4FCE01C0
S113062001960E947434CE0101960E94B934662E5C
S1130630CE0101960E9400332D8D3E8D42E050E0A4
S1130640BE01675E7F4FCE0101960E947434CE01D5
S113065001960E94B934562ECE0101960E940033B1
S1130660162D1295107F15294AE0602FCE010196B0
S11306700E94BD334AE0672DCE010D960E94BD3322
S11306806AE071E0CE0143960E947133BE016D5E53
S11306907F4FCE0107960E949D33BE01635F7F4F5B
S11306A0CE0107960E944834BE016F5F7F4F0E94BF
S11306B04834BC0182EE93E00E946130CE0107967B
S11306C00E940033CE0143960E940033CE010D9662
S11306D00E940033CE0101960E9400334AE0652D4A
S11306E0CE0101960E94BD334AE0662DCE010D96DF
S11306F00E94BD3362E171E0CE0107960E9471331E
S1130700BE01635F7F4FCE0107960E9448346FE1BC
S113071071E00E945B34BE016F5F7F4F0E944834DA
S1130720BC0182EE93E00E946130CE0107960E94E4
S11307300033CE010D960E940033CE0101960E9433
S113074000334AE060918002CE0107960E94BD33D7
S113075062E271E0CE0101960E947133BE01695FCD
S11307607F4FCE0101960E944834BC0182EE93E093
S11307700E946130CE0101960E940033CE0107969B
S11307800E94003321E0B501A401CE0101960E942C
S1130790EA3321E0B701A601CE010D960E94EA33A7
S11307A067E371E0CE0107960E947133BE01635F77
S11307B07F4FCE0107960E944834BE016F5F7F4F82
S11307C00E944834BC0182EE93E00E946130CE0165
S11307D007960E940033CE010D960E940033CE018D
S11307E001960E94003370927E0200937F02109360
S11307F0800286E892E00E9415278823B9F160E41C
S113080071E082EE93E00E94733095018401B70198
S1130810A60186E892E00E94D32786E892E00E942F
S1130820DA2686E892E00E946128F82EE92E4AE052
S113083050E0682F792F82EE93E00E94FA3086E828
S113084092E00E945D28182F092F4AE050E0682F9B
S1130850792F82EE93E00E94FA30E0928102F092C6
S11308608202009383021093840206C06DE471E057
S113087082EE93E00E947330CE0149960E940033C9
S1130880CE014F960E940033A4960FB6F894DEBFB3
S11308900FBECDBFDF91CF911F910F91FF90EF90CD
S11308A0DF90CF90BF90AF909F908F907F906F908C
S11308B05F90089580914F0587FF03C060EE72E05A
S11308C00BC00E94AC0220E047E06EE772E081E0DA
S11308D00E94B61E62ED72E082EE93E00C944F30FB
S11308E0CF93C82F0E942C1FAB01BC012AE030E03B
S11308F082EE93E00E940C316FE071E082EE93E0AF
S11309000E9442308C2F90E0FC013197EF30F105CA
S113091008F065C0EC5CFF4F0C94263562EC72E085
S113092060C062EB72E05DC061EA72E05AC06FE8D9
S113093072E057C064E872E054C06AE772E051C0E4
S113094062E772E04EC063E672E04BC062E572E0BB
S113095048C062E272E082EE93E00E944F308091E0
S1130960E80587FF06C065E172E082EE93E00E942D
S11309704F308091EA058823A1F06BE072E082EEAB
S113098093E00E944F304AE050E06091EA0582EE25
S113099093E00E94E23069EF71E082EE93E00E94FE
S11309A04F300E942C1FAB01BC01485C5346634E80
S11309B07F4F2AE534E086E792E0CF910C94801FC4
S11309C06BEE71E00EC062EE71E00BC064ED71E09D
S11309D008C067EC71E005C069EB71E002C06BEA26
S11309E071E082EE93E0CF910C944F30EF92FF923E
S11309F00F931F93CF93DF93CDB7DEB7A0970FB6B6
S1130A00F894DEBF0FBECDBF26E040E052EC61E0BB
S1130A1070E082EE93E00E94D22E62EA71E082EEF0
S1130A2093E00E944F308CE893E00E94942B6CE892
S1130A3073E086E892E00E94CC27811107C064E647
S1130A4071E082EE93E00E944230FFCF0E941F1FAC
S1130A500E944F1E40E150E069EF72E0CE014196E2
S1130A600E94FB3840E150E069E073E0CE0101965A
S1130A700E94FB38CE0141967C018E010F5F1F4F0F
S1130A802DE334E141E056E261E070E080E090E083
S1130A900E94D71E01E02FE330E040EA57E26EEBFC
S1130AA073E380E00E94B20F81E00E94AD1382E004
S1130AB00E94AD1380E00E94151F83E08093CE0551
S1130AC06EE085E00E944D1E86E792E00E945A0483
S1130AD0A0960FB6F894DEBF0FBECDBFDF91CF91C5
S1130AE01F910F91FF90EF9008950C94C31F1092E3
S1130AF0AA026BE586E892E00C94BF26CF932BEA1A
S1130B0032E0BC01605F7F4FDC01F90140E05D91A0
S1130B10C0815C2750834F5F34964430C1F72F5F08
S1130B203F4F04966817790779F7CF910895EBEA58
S1130B30F2E084819581948396819583978196834D
S1130B408783808592859087828781859385918725
S1130B5083878785968597879585968794859587D6
S1130B6084870895CF93DF9300D000D0CDB7DEB74C
S1130B70FB013C969B01205F3F4FDE011196919152
S1130B809D932E173F07D9F799812A8129832B81B9
S1130B902A832C812B839C839E012B5F3F4FDE0194
S1130BA011969C91E92FE295EF7040E1E49FF001EA
S1130BB01124E75EFC4F9F70E90FF11DE491ED9362
S1130BC0A217B30771F791E04BE1813041F0592F3F
S1130BD05078990F503809F494278150F6CF8981C1
S1130BE09827998394E0FE013196DB014C91808132
S1130BF084278D9381932E173F07C1F791506C5F23
S1130C007F4F9111F0CF0F900F900F900F90DF91C5
S1130C10CF9108954F925F926F927F928F929F929D
S1130C20AF92BF92CF92DF92EF92FF920F931F93F6
S1130C30CF93DF93CDB7DEB768970FB6F894DEBFD6
S1130C400FBECDBF8C012BEAE22E22E0F22E9701DB
S1130C5080E090E0D801A80FB91FF90140E05D9150
S1130C6050834F5F34964430D1F704962F5F3F4F43
S1130C708031910579F7DB01FE0131966E0151E176
S1130C80C50ED11C3F018D918193EC15FD05D9F75B
S1130C90C3010E947E05552453948FEAA82E82E056
S1130CA0B82E4E0189E1880E911C9BE1492E8BEAF6
S1130CB092E024E0DC0130E04C91E42FE295EF7007
S1130CC050E1E59FF0011124E75EFC4F4F70E40F03
S1130CD0F11DE491EC933F5F1496343069F7215091
S1130CE001962111E7CF0E949705EBEAF2E0CE01CD
S1130CF04596B6019F01D9015C91DC015D93CD015C
S1130D00452F440F57FD4425DB014C932C5F3F4F87
S1130D106F5F7F4F8816990671F76E8999899627B8
S1130D204F89388D8A8984278327292F282721935F
S1130D305D892B898527822783838C8936273527EC
S1130D402327282727834527482794279387AE16E8
S1130D50BF0669F6B301852D0E94B205C3010E9446
S1130D607E055394BAE05B12A2CF8BEA92E034E0A2
S1130D70DC0140E02C91E22FE295EF7050E1E59F19
S1130D80F0011124E75EFC4F2F70E20FF11DE49196
S1130D90EC934F5F1496443069F73150019631114A
S1130DA0E7CF0E949705B3018AE00E94B205C30110
S1130DB00E947E059801205F3F4FD801F70180E033
S1130DC090819D938F5F34968430D1F78FEFE81A2A
S1130DD0F80A0C5F1F4F2017310779F768960FB692
S1130DE0F894DEBF0FBECDBFDF91CF911F910F915D
S1130DF0FF90EF90DF90CF90BF90AF909F908F9037
S1130E007F906F905F904F900895FC0120E12150F6
S1130E1050F011F0818101C080E09081990F87FD2D
S1130E2091609193F4CF08956F927F928F929F92E5
S1130E30AF92BF92CF92DF92EF92FF920F931F93E4
S1130E40CF93DF93CDB7DEB760970FB6F894DEBFCC
S1130E500FBECDBF7B018A01282F30E0277F2230CF
S1130E60310549F02430310509F4A0C0232B09F0E1
S1130E70B6C0D12C7BC083FD12C068E874E088E959
S1130E8094E00E940A0630E1632ECE0101966C01C3
S1130E9048EA842E44E0942E57E8752E47C080E13A
S1130EA0E8E9F4E0DF011D928A95E9F7ECCFFC0153
S1130EB02191CF013C9123272D934F5F7F01015056
S1130EC011094031F1F10115110589F7E42FF0E022
S1130ED0E856FB4F80818058808301E0D601E62DDF
S1130EE01D92EA95E9F768E874E0C6010E940A06D3
S1130EF019811078C6010E940507112319F0888909
S1130F008725888B011122C0F6018191D5019C911E
S1130F1089278D935D018A169B06B9F700E010E0DE
S1130F2068E874E088E994E00E940A060115110556
S1130F30C1F0C70128E9A22E24E0B22ED50140E079
S1130F40B6CF0115110561F700E0C8CF19811078FB
S1130F50C6010E9405071123B9F288898725888B69
S1130F60D3CF88E994E00E94E30C3CC08D2D90E03F
S1130F7080179107A0F568E874E08E0D9F1D0E940C
S1130F800A06B0E1DB0EF2CF0115110551F08D9187
S1130F90908189278193015011097F01E217F3079A
S1130FA099F78091A7048F5F8093A7040115110519
S1130FB0B1F080E1E8E9F4E0DE01119601900D92D0
S1130FC08A95E1F768E874E0CE0101960E940A066A
S1130FD0DE011196F7019701205F3F4FD8CF60E003
S1130FE070E0CB0160960FB6F894DEBF0FBECDBFA4
S1130FF0DF91CF911F910F91FF90EF90DF90CF90F1
S1131000BF90AF909F908F907F906F900895682FBE
S1131010809194018F3F11F00C94A8320895CF93DE
S1131020DF93C0919501CF3F99F0823058F4D82FC7
S113103061E08C2F0E946C326D2F8C2FDF91CF9149
S11310400C94A83260E08C2FDF91CF910C946C3219
S1131050DF91CF91089590911C0381111CC0509190
S1131060BD024091BE02992399F03FB7F894909144
S11310701C03913059F49DB390931A032DB39091AE
S11310801B03909592239DBB3FBF02C030931A036C
S11310905CBD4DBD0EC0992361F02FB7F89430911B
S11310A01C0390911A03313019F49DBB2FBF01C06A
S11310B09FBF682F809193010C94A8328EBD0000CD
S11310C00DB407FEFDCF8EB508950E949E31DC015C
S11310D0CB0124E0B695A795979587952A95D1F7E6
S11310E03091BB02232F2B272870230F2093BB02A0
S11310F0BC01CD01922B0895CF92DF92EF92FF9223
S11311006B017C010E946508C61AD70AE80AF90A2D
S113111089EEC81683E0D806E104F1046CF060E1BE
S113112070E080E090E00E94C33188EEC81A83E04A
S1131130D80AE108F108ECCF1C141D041E041F0496
S113114064F4C60124E0880F991F2A95E1F7FF9003
S1131150EF90DF90CF900C94FF31FF90EF90DF90F1
S1131160CF900895CF92DF92EF92FF926B017C01B2
S11311700E946508C61AD70AE80AF90A81E01C1415
S11311801D041E041F040CF480E0FF90EF90DF9018
S1131190CF900895F8948091BC028F5F8093BC0235
S11311A00895CF92DF92EF92FF920F931F93CF9304
S11311B0DF938091BC0281508093BC02811121C0D5
S11311C0789486E9C82E81E0D82ECFEBD2E010E0E7
S11311D001E0F60181916F018F3F79F0E880F12CF5
S11311E00E94D732E816F90641F088818027888367
S11311F0882319F0812F0E94B0221F5F219613309B
S113120041F7DF91CF911F910F91FF90EF90DF9005
S1131210CF9008950895EDEBF2E080E5808381E0BE
S1131220818308958C01EB0169E971E082EE93E01A
S11312300E947330B80182EE93E00E9442306AE368
S113124082EE93E00E9444304AE050E0BE0182EE18
S113125093E00E94FA3082EE93E00E94B02E0E9446
S1131260CA08FFCF1F93CF93DF93809193018F3FE1
S113127019F468E170E006C0109196011F3F31F443
S113128069E170E082EA91E00E941209D09197012D
S1131290C0919801DF3F29F4CF3F19F46AE170E06F
S11312A0F1CF61E00E946C32809194018F3F19F07C
S11312B061E00E946C32809195018F3F19F061E0EA
S11312C00E946C3260E0812F0E946C32DF3F21F07B
S11312D060E08D2F0E946C32CF3F21F060E08C2FB4
S11312E00E946C32DF91CF911F910C946528CF93AB
S11312F0DF93C8EAD4E01092EA05E0912B0684E07B
S1131300E89FF0011124E855FB4F83AD94ADA5ADE2
S1131310B6AD8C7F88879987AA87BB8783E891E1DC
S11313209F878E87DF91CF9108951092BF05109209
S1131330C0051092C1051092C2051092BB0510920F
S1131340BC051092BD051092BE0510925505109271
S1131350C9051092C8051092C5051092C3051092D4
S1131360CD051092D3051092CB051092CC051092A6
S1131370D6051092510584EF8093C4051092CE05D2
S113138088E096EEA3EDB3E38093CF059093D00568
S1131390A093D105B093D20525E020932B0680932A
S11313A0E3059093E405A093E505B093E60583E097
S11313B08093D70508954F925F926F927F928F9298
S11313C09F92AF92BF92CF92DF92EF92FF92CF9310
S11313D0DF93C62FA0915605B0915705C0905805CC
S11313E0D0905905811109C04D01BB0FAA08BB0853
S11313F00D2C000CEE08FF081AC0482F50E09A018B
S11314000E9442354B015C0187E0B594A794979400
S113141087948A95D1F7D6010E9442356B017C01ED
S113142097E0F594E794D794C7949A95D1F7A0914F
S11314305A05B0915B052091D40584E0C89FE00172
S11314401124CF5CDB4FFE0145905590659074905C
S113145030E00E9442356C0D7D1D8E1D9F1DA30141
S113146092010E9407352B5F2093B804FE01259159
S1131470359145915491ADEFBFEF0E945735680DFA
S1131480791D8A1D9B1DDF91CF91FF90EF90DF9016
S1131490CF90BF90AF909F908F907F906F905F9010
S11314A04F900895CF92DF92EF92FF92CF93DF9304
S11314B0D82F0E949022C82F0E9490222C2F30E017
S11314C0322F2227A901482BCA016C01853254EF1F
S11314D0950720F024E2C21A24EFD20AE12CF12C61
S11314E0DD2371F099276D2F70E00E94D13424E23E
S11314F034EFDC010E944235C60ED71EE81EF91EE9
S1131500C701B601DF91CF91FF90EF90DF90CF90AC
S11315100895CF92DF92EF92FF926B017C01842FAA
S11315200E94520ADC01CB018C0D9D1DAE1DBF1D16
S113153020914605222399F0C0904705D090480594
S1131540E0904905F0904A059C01AD012C193D0934
S11315504E095F0912161306140615068CF48093BF
S1131560470590934805A0934905B0934A05809197
S11315704F059091500591609093500580934F05CD
S1131580FF90EF90DF90CF9008954F925F926F920B
S11315907F928F929F92AF92BF92CF92DF92EF92FF
S11315A0FF920F931F93CF93DF936B017C01EA01AA
S11315B004E0209FF0011124EF5CFB4F859095908F
S11315C0A590B49085E08093B80460915C05709117
S11315D05D056115710509F447C080E090E0A7013D
S11315E096010E945C35722E032F142FB52FF62F0F
S11315F0E72F582E692EA0E00E94A43684F42150CF
S113160031094F4F5F4F6F4F7F4F8F4F9F4F722E58
S1131610032F142FB52FF62FE72F582E692E272DC1
S1131620302F412F5B2F6F2F7E2F852D962D00E1BC
S11316300E94863629013A01AAEFB0E0A50194017F
S11316400E944935641575058605970524F48FEFC6
S11316508093B80409C0C301B201A50194010E949A
S113166007352B5F2093B8044091A8045091A90436
S11316706091AA047091AB04C40ED51EE61EF71E39
S1131680D501C40123E0880F991FAA1FBB1F2A9507
S1131690D1F7C80ED91EEA1EFB1EA091B804B0E013
S11316A0A50194010E94493597018601061B170B79
S11316B0280B390BB901A8010093AC041093AD04B5
S11316C02093AE043093AF044D5751096109710959
S11316D09E018BEB94E0DF91CF911F910F91FF90CE
S11316E0EF90DF90CF90BF90AF909F908F907F90BE
S11316F06F905F904F900C94801F81E79AE19093D4
S1131700C2048093C10482E00C94652386E69DE1C3
S11317109093C2048093C10482E00C946523E8EAA8
S1131720F4E021E02093E805268537852068378793
S113173026871092EA05928F818F82E00C946523AC
S113174085E29EE10C948F0B83E49DE10C948F0B56
S1131750A8EAB4E082E08093E805E091CE05F0E0E9
S1131760EF57FB4FE491F0E0EF77E0681F96FC93AE
S1131770EE931E974091CF055091D0056091D1050D
S11317807091D20518964D935D936D937C931B973E
S11317901092EA050C9465238CE39EE19093C204B5
S11317A08093C1040C94A80B86E59DE19093C20438
S11317B08093C1040C94A80B8091B7059091B8054F
S11317C0A091B905B091BA05892B8A2B8B2B21F0F6
S11317D080914F0582FF06C063EF76E087ED91E0CC
S11317E00E94120980914F059091500586FD2FC0EB
S11317F0109237061092C3051092E7058E77816028
S11318009093500580934F050E9477090E942C1FE6
S1131810AB01BC014C5D594F64487F4F4093310686
S11318205093320660933306709334064093AC04AD
S11318305093AD046093AE047093AF0420E13AE199
S11318408BEB94E00E94801F83E00C946523089541
S1131850CF93DF9390E4E3EEF4E0DF011D929A95D9
S1131860E9F790E2E3E2F5E0DF01292F1D922A95E2
S1131870E9F7E3ECF4E0DF011D929A95E9F727E03C
S113188030E03093440520934305811102C083E086
S113189001C080E0C3EED4E0A3E2B5E093E0980F8A
S11318A02FE330E044E0849FF0011124E75EFB4F16
S11318B0459155916591749149935993699379939D
S11318C02D933D938F5F8913EDCF88EE93E0909332
S11318D0C4048093C304CEE0C093C5040E94902244
S11318E08F708093C60484E690E09093CC04809338
S11318F0CB04C093CD040E9490228F708093CE04B9
S11319008AE090E09093D4048093D3048BE1809395
S1131910D5040E9490228F708093D6040E942C1FBD
S11319206093D7047093D8048093D9049093DA0415
S11319306093CF047093D0048093D1049093D20425
S11319406093C7047093C8048093C9049093CA0435
S1131950DF91CF910895603811F060935205909112
S11319605305981759F08093530580914F05909132
S1131970500598609093500580934F050895FC019D
S1131980608171818281938108950F931F930197E0
S11319900E94BF0C272F382F492F5527A4E6B0E00B
S11319A00E9449358B019C01005C15452047334357
S11319B0013C1F4C2A46310518F060E070E0CB0171
S11319C01F910F910895FC0160817181828193813F
S11319D00E942C350895FC014083518362837383F4
S11319E008954F925F926F927F92AF92BF92CF927F
S11319F0DF92EF92FF920F931F93CF93DF93EC014B
S1131A002801390180E1E8E9F4E0DF011D928A95BB
S1131A10E9F781E08093A70480939804EF2809F400
S1131A2080E080939D048EE994E00E94EB0CB30166
S1131A30A20182EA94E00E94EB0C80E1FE01A8E896
S1131A40B4E001900D928A95E1F7A501B60184E016
S1131A50DF91CF911F910F91FF90EF90DF90CF9086
S1131A60BF90AF907F906F905F904F900C9414074D
S1131A70CF92DF92EF92FF9280E1E8E8F4E0DF0199
S1131A801D928A95E9F788E0E3EFF5E0DF011D9206
S1131A908A95E9F7409138065091390660913A06E3
S1131AA070913B068BEE95E00E94EB0C4091B705DC
S1131AB05091B8056091B9057091BA058FEE95E023
S1131AC00E94EB0C40E150E06BEE75E080E00E9478
S1131AD014074091D80587E090E0841B91092FEF0B
S1131AE03FE002C0359527958A95E2F78091EB0592
S1131AF09091EC0528233923C0903106D09032060A
S1131B00E0903306F0903406B4E9CB0EB5E0DB1E6A
S1131B10B2E0EB1EF11CA3E5B7E00E943335C60E1C
S1131B20D71EE81EF91EC092DB05D092DC05E092B8
S1131B30DD05F092DE051092D90581E090E001C048
S1131B40880F4A95EAF76091D7058E5F0E94DB09FA
S1131B50C61AD70AE80AF90AC092DF05D092E0054E
S1131B60E092E105F092E2058091B8048093DA05F1
S1131B70FF90EF90DF90CF900895CF92DF92EF9295
S1131B80FF92CF93DF936B017C01EA0180914F05B3
S1131B9090915005827096708230944059F40E945E
S1131BA0380D80914F0590915005926090935005A7
S1131BB080934F058091B804873059F54091A8046B
S1131BC05091A9046091AA047091AB044C0D5D1D61
S1131BD06E1D7F1DDB01CA010A97A109B10980931B
S1131BE0AC049093AD04A093AE04B093AF0488E02A
S1131BF08093B80447585109610971099E018BEB20
S1131C0094E0DF91CF91FF90EF90DF90CF900C9410
S1131C10801F2091B904AE01C701B601DF91CF91B5
S1131C20FF90EF90DF90CF900C94C50A2091C605E9
S1131C3030E0A4E2B4EF0E94333540EA5BE00C9458
S1131C40BD0D44EA5BE064EB74EC84E090E00C943A
S1131C50BD0DFC0143835283618370830895FC01AD
S1131C60680F791F80E090E0E617F70791F0219163
S1131C70922728E0AC01440F551F97FF06C0CA0104
S1131C8031E2832730E1932701C0CA01215091F743
S1131C90EBCF08950F931F93CF938091EA05813181
S1131CA031F067EE73E087ED91E00E94120967E07E
S1131CB070E08BEE95E00E942F0E2091F20530E04B
S1131CC099272817390709F081C08BEE95E00E9407
S1131CD0BF0CDC01CB01BB2700914B0510914C05D7
S1131CE020914D0530914E0580179107A207B30747
S1131CF009F06FC0C0913706CC7FC093370680913E
S1131D00B504809336068091B4048093350680919F
S1131D10AC049091AD04A091AE04B091AF04805492
S1131D209342A109B1098093310690933206A0939E
S1131D303306B09334068EEE95E00E94BF0C609398
S1131D4038067093390680933A0690933B068C2F9D
S1131D508160809337060091FA051091FB056FE0CE
S1131D6070E08BEE95E00E942F0E08171907A1F57D
S1131D7083EF95E00E94BF0CBB2797FDBA95A92F6E
S1131D80982F872F80933D0690933E06A0933F069D
S1131D90B093400686EF95E00E94BF0CBB2797FDE9
S1131DA0BA95A92F982F872F8093410690934206C6
S1131DB0A0934306B09344068091F30580933C06B8
S1131DC0C360C093370682E090E008C080E090E0F2
S1131DD005C08FEF9FEF02C081E090E0CF911F918B
S1131DE00F910895282F277030E0F901EE0FFF1F9F
S1131DF0E20FF31FE55AFB4F53E0969587955A95EA
S1131E00E1F78370E80FF11D849190E08D589109FA
S1131E100895EF92FF920F931F93FC01382F3770B0
S1131E20A62FB0E079F41B9603E0AA0FBB1F0A9516
S1131E30E1F724E234EF0E94423520E533EC40E040
S1131E4050E087C0632F660F660F685E353010F46C
S1131E5020E001C028E013E0AA0FBB1F1A95E1F7A8
S1131E60CD01861B9109DC015C96E7FD03C080E18E
S1131E7090E002C080E090E08A0F9B1F4F2F55270F
S1131E80452B19F440E050E002C044E150E0841BCB
S1131E90950B18161906D4F4621B70E0860F971F71
S1131EA001970E94D134AF01A5E056954795AA95B4
S1131EB0E1F7437050E04B5F5F4F469FC001479F7F
S1131EC0900D569F900D1124089602C088E090E072
S1131ED0880F991F880F991FC1963F5F63E0F6959D
S1131EE0E7956A95E1F7E3703E1B353050F03450C6
S1131EF0E9E0FDE302C0F595E7953A95E2F734E0B1
S1131F0002C0E9E0FDE3092E000CAA0BBB0B7C0127
S1131F108D0104C0EE0CFF1C001F111F3A95D2F76F
S1131F20A8019701A4E2B4EF0E9449359F01F7FF8D
S1131F3002C02F5F3F4F359527958901330F220B40
S1131F40330B600F711F821F931F9F01FF0F440B00
S1131F50550B0E940735CA01B9011F910F91FF90DB
S1131F60EF900895CF92DF92EF92FF920F93CF9369
S1131F70DF93A82F803108F074C00F3FC1F56A01C8
S1131F807B0180ECC81A8DEFD80A81EDE80A83E35F
S1131F90F80A81E9C81680EDD80683E0E806F10462
S1131FA010F4426030C06A017B0181EAD81A8CEBDC
S1131FB0E80A83E3F80A81ECC81687E2D80689E0C8
S1131FC0E806F10490F06A017B0180EAC81A81E90D
S1131FD0D80A86EDE80A83E3F80A81EEC81683E995
S1131FE0D80684E0E806F10470F441600CC00430C3
S1131FF0C4F54C7FC02E000FDD08EE08FF084C2905
S11320005D296E297F29EA2FF0E0EF01CC0FDD1F57
S1132010CC0FDD1FC855DB4F4BAF5CAF6DAF7EAF50
S11320202115310519F0922F832F02C09FE380E020
S1132030EE0FFF1FED5DFA4F9083818381E090E006
S113204002C0880F991FAA95E2F7209143053091A9
S11320504405822B932B909344058093430581E0A0
S113206001C080E0DF91CF910F91FF90EF90DF905E
S1132070CF9008952F923F924F925F926F927F92EA
S11320808F929F92AF92BF92CF92DF92EF92FF9284
S11320900F931F93CF93DF93CDB7DEB729970FB676
S11320A0F894DEBF0FBECDBFE090EA05F12C2CE022
S11320B0E216F10424F41092EA0580E035C330916D
S11320C0EB053983132F1370B1F7307E3E8330361E
S11320D011F0303A81F78CEE95E00E94BF0CAB0111
S11320E0BC018091B7059091B805A091B905B09154
S11320F0BA05481759076A077B07E9F68091F00586
S11321008B838F70A82FB0E0BD83AC834D01B8E002
S11321108B0E911C170124E0221A3108281439046B
S113212054F28214930474F4F401E551FA4F80815B
S1132130A82FB0E0BA83A9832C813D81275F3F4F4C
S1132140490104C08FEF9FEF9A8389834090BB05B8
S11321505090BC056090BD057090BE058091F1055E
S11321609091F20584199509480E591E611C711C41
S1132170E8E9F4E0DF0120E11D922A95E9F789E41A
S11321808093980481E080939D042092A7048EE9B3
S113219094E00E94EB0CB301A20182EA94E00E9455
S11321A0EB0CE7E9F5E0A8E8B4E030E101900D922A
S11321B03A95E1F7A1016BEE75E082E00E94140705
S11321C06B017C01C10185519A4F0E94E30CC61634
S11321D0D706E806F90609F06ECF8091BB05909109
S11321E0BC05A091BD05B091BE05481659066A0606
S11321F07B06E8F484159505A605B7050CF45BCFBA
S11322000197A109B109481659066A067B0609F027
S113221052CF8091C305882309F44DCF8E81803A33
S113222009F049CFA1E0B0E0BF83AE8317C0D3016A
S1132230C2010196A11DB11D8093BB059093BC05FD
S1132240A093BD05B093BE05BE81B03A11F480E2FF
S113225001C080E08093C3051F821E828091C30564
S1132260811103C02B8124FF09C080914F059091F7
S1132270500580619093500580934F051092550549
S11322801092C5058091C405803819F084EF8093BD
S1132290C4053091B404832F082E000C990B80548C
S11322A09109998788878091B6049091B7040E9418
S11322B0F20EA885B985A81BB90BB987A887B7FD05
S11322C008C0AF3FB10524F08EEF90E0998788876E
S11322D018851093C70519861886A885B9852C8199
S11322E03D81A217B3070CF0BBC1E885F985ED5019
S11322F0FA4FE0818E2F90E0FC013297E131F10535
S113230008F0AEC1ED5BFF4F0C942635A885B98566
S1132310139629C1E885F985EC50FA4F1081E885B8
S1132320F985EB50FA4F80819181E885F985E95070
S1132330FA4F0081288539852B5F3F4F39872887DD
S113234037E83093C805202F207F09F0DBC10097C0
S113235009F4D8C120914305309144052095309566
S113236028233923232B09F0CDC1A8EAB4E020E0C7
S113237030E041E050E0022E02C0440F551F0A94A1
S1132380E2F7BA0168237923672B71F0DB96CD90CD
S1132390DD90ED90FC90DE97CD28CE28CF2821F457
S11323A040955095842395232F5F3F4F14962031F9
S11323B03105F9F69093440580934305812F829566
S11323C08F70E82FF0E0EF57FB4FE491EF3F29F4D3
S11323D09091C8059D7F9093C8059091C8059F77FB
S11323E0973059F40F70009351051F70E12FF0E0FE
S11323F0E059FB4F64910E94AB0C81E08093C505CA
S11324006CCF91E09093C905A885B9851196ABC0AE
S1132410E885F985EC50FA4F10811F7088859985FD
S11324208B509A4F0E94C50CE12FF0E0EF57FB4F01
S1132430E491EF3F49F0B2E8B093D305611571051B
S11324408105910559F062C130E83093D305672BBB
S1132450682B692B19F021E82093D3058885998589
S11324600596FBC0E885F985EC50FA4F20812F3F93
S113247049F480914F0590915005806490935005E4
S113248080934F052F70209346050E942C1F609364
S11324904705709348058093490590934A0591E058
S11324A09093CC05A885B98512965DC0E885F98519
S11324B0EC50FA4FD080888599858B509A4F0E94B2
S11324C0C50CAB01BC01E885F985E850FA4FE08101
S11324D0B0E8B093CD05411551056105710521F1B1
S11324E08E2F82958F702FE030E0281B3109C901AF
S11324F02FEF3FEF02C0369527958A95E2F7EF70EC
S11325008FEF9FEF02C0880F991FEA95E2F7282307
S113251039230FEF8D2D0E94B20F882329F080916B
S1132520CD0583608093CD0588859985069695C0F1
S1132530888599858C509A4F0E94C50C6115710548
S11325408105910551F06093E3057093E405809350
S1132550E5059093E60581E801C080E88093D605FF
S1132560A885B9851496B987A887B7CE80914F05F9
S11325709091500581FD6EC0E885F985EA50FA4FC7
S1132580208120932B0682609093500580934F0501
S11325908091D505811106C063EE74E087ED91E06A
S11325A00E941209E885F985EC50FA4F80819181E7
S11325B0BEE1B89FB001B99F700D112480E090E096
S11325C024E234EF40E050E00E946B35E8EEAE2E9A
S11325D0F3E0BF2EC12CD12CE12CF12C00E010E053
S11325E00E94983559016A018091AC049091AD0420
S11325F0A091AE04B091AF048A0D9B1DAC1DBD1D0E
S1132600AC01BD0146555E406A47710940933106ED
S11326105093320660933306709334061092570534
S11326201092560510925B0510925A051092D4052B
S11326302CE02093370633E130932C06865D9140DD
S1132640A109B10980932D0690932E06A0932F061D
S1132650B0933006888599850496998788873DCEFE
S11326608E819F81892B31F5A981BA81AF3F2FEFEC
S1132670B20701F15101A818B9081A141B04D4F4C3
S1132680C40185519A4F6C014091B7055091B8052A
S11326906091B9057091BA05AB2B19F487E995E0FF
S11326A002C087EA95E0EE24E394F12C93018201C1
S11326B00E94F10C8091E705882359F08091E80588
S11326C09B8195FF02C090E801C090E4892B809320
S11326D0E8058091E805A981BA81119641F48062E8
S11326E08093E8058092E9051092EA0509C08061AB
S11326F08093E8058092E905822D88198093EA0584
S113270081E012C086E88093C80558CEA3E8A09360
S1132710D3051093CE056093CF057093D0058093B5
S1132720D1059093D2059ACE29960FB6F894DEBFC0
S11327300FBECDBFDF91CF911F910F91FF90EF900E
S1132740DF90CF90BF90AF909F908F907F906F90CD
S11327505F904F903F902F900895482F282F30E09E
S1132760F901EE0FFF1FEE0FFF1FE855FB4F13AEED
S113277014AE15AE16AE220F331FF901ED5DFA4FFC
S113278011821082E3E4F5E081E090E002C0880F5A
S1132790991F4A95E2F78095909520813181822393
S11327A09323918380830895CF92DF92EF92FF92D7
S11327B08091B7059091B805A091B905B091BA057B
S11327C0892B8A2B8B2B09F064C080914F05909143
S11327D0500580799927892B31F069E377E087EDFB
S11327E091E00E9412091092460580914F05909144
S11327F050058E7D977E9093500580934F051092DF
S1132800E705109255050E94902263E00E94C534AA
S1132810909345058EE08093520585E0809353059F
S113282081E00E94280C80914F059091500593FF00
S113283006C06AEB72E087ED91E00E941209C09035
S1132840C704D090C804E090C904F090CA0488E09A
S11328500E94520ADC01CB018C0D9D1DAE1DBF1DD3
S11328608093A8049093A904A093AA04B093AB0402
S113287080914F059091500584609093500580930A
S11328804F0561E67DE18BEB94E00E945C1F81E0E3
S113289001C080E0FF90EF90DF90CF9008952F92D9
S11328A03F924F925F926F927F928F929F92AF92DC
S11328B0BF92CF92DF92EF92FF920F931F93CF9329
S11328C0DF93CDB7DEB762970FB6F894DEBF0FBEC5
S11328D0CDBF80914F05909150059C01217C3327F9
S11328E0232B09F080C54091B7055091B80560913C
S11328F0B9057091BA05452B462B472BE1F482FDAF
S11329001AC062960FB6F894DEBF0FBECDBFDF913A
S1132910CF911F910F91FF90EF90DF90CF90BF90D8
S1132920AF909F908F907F906F905F904F903F906B
S11329302F900C94D4130E942C1F2B013C018091E6
S11329404F0581FF30C040912D0650912E066091B5
S11329502F0670913006D301C20183589F4FAF4FA9
S1132960BF4F841B950BA60BB70B181619061A0636
S11329701B0634F468E078E087ED91E00E941209C8
S113298080912D0690912E06A0912F06B0913006CD
S11329908C019D010D5711092109310909831A83FD
S11329A02B833C8304C019821A821B821C822091CF
S11329B04F05309150053A8B298BC9018C739927A7
S11329C0892B09F4CAC3190134E223223324498927
S11329D05A8953FFB9C060914305709144057A87C1
S11329E06987809153058F7021E030E0D90102C0DE
S11329F0AA0FBB1F8A95E2F7BC87AB87AFE09301B0
S1132A0082011E52264B34490D871E872F87388B2F
S1132A10CD84DE84EF84F888E8EAF4E080E090E096
S1132A20B0E02A2F30E0A901082E02C05595479541
S1132A300A94E2F740FF12C0478D50A161A172A130
S1132A4046015701841A950AA60AB70A18141904EC
S1132A501A041B041CF4B82F6A017B0101963896F2
S1132A608430910501F72B2F30E03E832D838901BB
S1132A7063E0000F111F6A95E1F7F801E855FB4F79
S1132A80268D90E18B2E912CA12CB12C81E0820F0C
S1132A90803110F081EF820F282F30E041E050E0C8
S1132AA0082E02C0440F551F0A94E2F769857A85FF
S1132AB046235723452B41F1F901EE0FFF1FED5D2E
S1132AC0FA4F408151816B857C8546235723452BE2
S1132AD0D9F0220F331F220F331FF901E855FB4FA2
S1132AE043AD54AD65AD76AD437055276627772762
S1132AF084169506A606B70639F4F801E855FB4F87
S1132B00868F8093450510C0915011F0282FBECFB9
S1132B1081E090E00D8002C0880F991F0A94E2F7CB
S1132B208095A82309F074CFC092A804D092A90478
S1132B30E092AA04F092AB0489899A89977F9093D2
S1132B40500580934F0508C0C090A804D090A904F4
S1132B50E090AA04F090AB042091460580914F05C3
S1132B6090915005211102C090FF12C04091470579
S1132B70509148056091490570914A059701860175
S1132B80041B150B260B370B37FF02C06A017B01B0
S1132B909C012270332781FF27C02114310429F4BA
S1132BA048ED58EB65E070E004C044E455E968E0A2
S1132BB070E04C0D5D1D6E1D7F1D89809A80AB8079
S1132BC0BC80481959096A097B09141615061606AA
S1132BD0170654F440E1C501B4016C567A4F8D4F89
S1132BE09F4F0E94890ABCC2B301A20143585F4FA0
S1132BF06F4F7F4F46015701841A950AA60AB70AF8
S1132C00B7FE9EC290905305232809F444C085FF63
S1132C100FC080915505815048F0E92DF0E0E0584F
S1132C20FB4FE491EF3FB9F39A94F5CF80EC01C0E8
S1132C3080E08093EB058CEE95E00E94A90284EF7E
S1132C4095E00E94AA029091950580919605909333
S1132C50FC058093FD0588E894E00E94AB0243E103
S1132C6050E06BEE75E08AE00E941407AB01BC01F2
S1132C708EEF95E00E94290E87E18093EA0580910A
S1132C8095059091960501969093960580939505E8
S1132C9081E29EE0DCC14091BB055091BC0560918E
S1132CA0BD057091BE0540385F4F6F4F7F4FF0F008
S1132CB069E97EE18BEB94E062960FB6F894DEBF8F
S1132CC00FBECDBFDF91CF911F910F91FF90EF9079
S1132CD0DF90CF90BF90AF909F908F907F906F9038
S1132CE05F904F903F902F900C945C1F2091E705CC
S1132CF021110DC04091BF055091C0056091C105DF
S1132D007091C2054F3F5F4F6F4F7F4F89F29C0117
S1132D10287133272031310521F0809060058D82A0
S1132D2001C01D82827094708230944089F480E1E5
S1132D308093F3058091D80510E1819FC00111248F
S1132D409091D705892B8093F4050AE010E002C026
S1132D5008E010E08091CC05882349F0F801E551A2
S1132D60FA4F84E080830F5F1F4F1092CC0540918F
S1132D70D305442379F0C80188559B4FFC01ED5BD2
S1132D80FE4F55E050833196437040830E5F1F4FD2
S1132D901092D3058091C905882399F0C8018855FC
S1132DA09B4FFC01ED5BFE4F46E0408331964FEFB5
S1132DB0408331964091C70540830D5F1F4F1092A9
S1132DC0C9054091C805442379F0C80188559B4F33
S1132DD0FC01ED5BFE4F53E0508331964770408316
S1132DE00E5F1F4F1092C8058091D505882339F0D6
S1132DF0F801E551FA4F82E180830F5F1F4F809104
S1132E00C505882339F08091C40587FD1092C40557
S1132E101092C5054091D605442379F0C801885520
S1132E209B4FFC01ED5BFE4F51E1508331964170A5
S1132E3040830E5F1F4F1092D6054091CD05442369
S1132E4079F0C80188559B4FFC01ED5BFE4F57E0BC
S1132E5050833196437040830E5F1F4F1092CD050F
S1132E602031310521F04D814B5F498302C054E08C
S1132E705983402F8980800E8982582D513430F433
S1132E80FF24F3942031310531F404C094E0892EF9
S1132E90800E8982F12C80E48093EB059091C30528
S1132EA02091CA05292B9091C4059095892F881FDC
S1132EB08827881F8295880F880F807C98EF940F4D
S1132EC0922B892B8093F0054091B7055091B8055A
S1132ED06091B9057091BA058CEE95E00E94EB0CF7
S1132EE02091E705211113C08091BF059091C00581
S1132EF0A091C105B091C2050196A11DB11D809399
S1132F00BF059093C005A093C105B093C2058091FD
S1132F10BF059091C00501978093F1059093F20548
S1132F201092C305FF2009F443C080915F058823F4
S1132F3041F080E88093EB05211103C081E0809388
S1132F40E705F801E551FA4F80915E058083980109
S1132F5024513A4F69018D80A82CB12CA50161E65A
S1132F6075E0C9010E94043980915E05882319F037
S1132F7087EA95E002C087E995E0A114B104C1F0A5
S1132F800091BF051091C0052091C1053091C20583
S1132F9001501109210931094091B7055091B80533
S1132FA06091B9057091BA05E12CF12C0E94F10CE5
S1132FB08980082D10E004501109C090BF05D090FD
S1132FC0C005E090C105F090C20521E0C21AD10805
S1132FD0E108F1084091B7055091B8056091B90531
S1132FE07091BA05E8E9F4E0DF01E0E18E2E1D926C
S1132FF08A94E9F789E48093980410929D040093DD
S1133000A7048EE994E00E94EB0CB701A60182EAC2
S113301094E00E94EB0CE7E9F5E0A8E8B4E080E175
S1133020A82E01900D92AA94E1F7A8016BEE75E029
S113303082E00E941407AB01BC01C80185519A4F7C
S11330400E94290E89808092EA0586E19EE0909391
S1133050C2048093C104E92DF0E0EF57FB4FE491E3
S11330608091540500E2809FC0011124EF798E2BDA
S11330709093B7048093B6049092B90420914F05BD
S1133080309150052F76367F206838603093500594
S113309020934F05E091450514E0E19FF0011124D0
S11330A0E855FB4F83AC94ACA5ACB6AC6091EA0593
S11330B00E94090F6B017C01D501C401837099271B
S11330C0AA27BB272CEF82228092B0049092B104ED
S11330D0A092B204B092B30443E0880F991F4A95BA
S11330E0E1F7FC01E855FB4F858D8093BA04A38D6D
S11330F0B48DA70196010E944935DC01CB01840DF2
S1133100951DA61DB71D878F90A3A1A3B2A380917F
S11331104605882399F004C0CC0CDD1CEE1CFF1C72
S11331208A95D2F7C40CD51CE61CF71CC09247053F
S1133130D0924805E0924905F0924A0581E0B8C072
S1133140232B09F4DCC0C114D104E104F10459F4C3
S1133150C12CD12C7601C39406C0398931FF43C1F7
S1133160C12CD12C760180914F059091500591FF8F
S113317065C0B301A20143585F4F6F4F7F4F4D832A
S11331805E836F8378878091DF059091E005A0913D
S1133190E105B091E205AC01BD018D809E80AF8058
S11331A0B884481959096A097B0977FF9BC01091B3
S11331B0D90517FD43C0E1E0F0E00090D80502C056
S11331C0EE0FFF1F0A94E2F71E0F1093D90517FDA7
S11331D035C0A12FB0E020E030E345E750E00E9485
S11331E04935DC01CB0127E0B595A79597958795DF
S11331F02A95D1F78090DB059090DC05A090DD0541
S1133200B090DE05880E991EAA1EBB1E82E08E0FAA
S11332106091D705810F0E94DB09861A970AA80AD4
S1133220B90A8092DF059092E005A092E105B09280
S1133230E2058091B8048093DA05A5CFC114D104C6
S1133240E104F10461F0D701C60189809A80AB8062
S1133250BC8088199909AA09BB09B7FD50C00E940E
S1133260770980912C068093B80480912D06909163
S11332702E06A0912F06B09130068093AC04909353
S1133280AD04A093AE04B093AF04D301C20189800E
S11332909A80AB80BC8088199909AA09BB09B7FD3B
S11332A052C081E79AE19093C2048093C10482E002
S11332B062960FB6F894DEBF0FBECDBFDF91CF91FB
S11332C01F910F91FF90EF90DF90CF90BF90AF9040
S11332D09F908F907F906F905F904F903F902F9032
S11332E00C946523C114D104E104F10499F1B701EC
S11332F0A601481B590B6A0B7B0B77FF2BC0B70148
S1133300A6014D5751096109710924E63DE18BEB92
S113331094E062960FB6F894DEBF0FBECDBFDF9186
S1133320CF911F910F91FF90EF90DF90CF90BF90BE
S1133330AF909F908F907F906F905F904F903F9051
S11333402F900C94801F2DE73BE049815A816B81BB
S11333507C81DDCF2091DA052093B8048093AC04FE
S11333609093AD04A093AE04B093AF044091E305F1
S11333705091E4056091E5057091E6054093B00431
S11333805093B1046093B2047093B304E091D705F1
S1133390F0E0EF57FB4FE491F0E0EF77E068F09353
S11333A0B704E093B6041092EA0584199509A609B6
S11333B0B70983389F4FAF4FBF4F34F46EE878E0BE
S11333C087ED91E00E9412094091AC045091AD0444
S11333D06091AE047091AF044D57510961097109B0
S11333E026E83BE094CF62960FB6F894DEBF0FBE9A
S11333F0CDBFDF91CF911F910F91FF90EF90DF90A0
S1133400CF90BF90AF909F908F907F906F905F9080
S11334104F903F902F9008950E9470040C944F1485
S113342080E00E9465238BEB94E00E942E1F809124
S1133430EA0581110BC080914F05909150058C7F56
S11334409093500580934F0581E049C00E944A0E35
S1133450181619069CF01092EA0583E00E94652371
S113346040913106509132066091330670913406D2
S113347020E13AE18BEB94E00C94801F1092570505
S11334801092560510925B0510925A051092D405BD
S1133490809137068C60809337068BE080932C06EE
S11334A08091310690913206A0913306B091340692
S11334B080589F4EA548BF4F80932D0690932E06AB
S11334C0A0932F06B093300680914F05909150053C
S11334D08E7F82609093500580934F0582E00C9418
S11334E00C1ACF92DF92EF92FF92CF938091EA056C
S11334F0882309F47FC0C0903106D0903206E09052
S11335003306F0903406C09137060E944A0E18160E
S113351019060CF06FC0C370C9F48BE080932C06BD
S11335208091310690913206A0913306B091340611
S113353080589F4EA548BF4F80932D0690932E062A
S1133540A0932F06B0933006C4E0DEC02EEED21A4C
S11335508091310690913206C81AD90A6091D40537
S1133560662379F02091560530915705C601821BD8
S1133570930B70E06F5F7F4F0E94D1346901C60ED8
S1133580D71E2091370622FD1DC0809156059091CB
S113359057058C199D0997FF03C091958195910951
S11335A0909359058093580540915A0550915B05B5
S11335B04817590724F490935B0580935A05277F95
S11335C020933706D0925705C092560510925505A0
S11335D01092D40580913706982F9B7F90933706DD
S11335E0837009F06DC064EC77E087ED91E00E9490
S11335F0120966C0C0905605D09057050D2C000CDA
S1133600EE08FF0880E092E1AAE7B0E0AC01BD015A
S11336104C195D096E097F0980913106909132063B
S1133620A0913306B0913406840F951FA61FB71FCF
S11336308093310690933206A0933306B0933406F8
S1133640C0903806D0903906E0903A06F0903B06D8
S113365020E8C20ED11CE11CF11CC0923806D092A5
S11336603906E0923A06F0923B062091D4052F5F8A
S11336702093D405BC01CD016C567A4F8D4F9F4FDA
S113368044E00E94890A8091D405853148F08091F4
S11336904F059091500580629093500580934F059B
S11336A080912C06853670F080914F0590915005DD
S11336B08D7D997F9093500580934F058BE02CC0AE
S11336C0C4E001C0C3E0C0903106D0903206E0905F
S11336D03306F090340682E1D80E8AE7E81EF11C26
S11336E063E080E00E94DB09C61AD70AE80AF90AF7
S11336F0C0922D06D0922E06E0922F06F09230064C
S11337008091B80480932C0680914F0590915005C8
S113371091FD0E94380D8C2FCF91FF90EF90DF9098
S1133720CF900C940C1ACF92DF92EF92FF920F93EA
S11337301F93CF93DF938091E805813051F48091FA
S1133740EA05811106C06CE975E087ED91E00E94FD
S1133750120980914F0587FD06C06DE975E087ED7C
S113376091E00E9412091091EA05111194C0809110
S11337704F059091500582FD1AC085FD06C062EA8E
S113378075E087ED91E00E94120980914F059091B8
S113379050058F759093500580934F058091550582
S11337A08A3018F48F5F8093550589E060C12091B9
S11337B045052F5F233019F02093450502C0109270
S11337C045052091E7052F5F2093E70520FD0EC0F6
S11337D020915305222361F0E22FF0E0E058FB4FE3
S11337E0E491EF3F09F0215020935305C0E001C05C
S11337F0C1E08F77977F9093500580934F050E9487
S11338002C1F6B017C018091C7049091C804A09186
S1133810C904B091CA04B701A601481B590B6A0B2D
S11338207B0B77FF02C06C017D018FEF90E000906D
S1133830530502C0959587950A94E2F70E94520AAF
S1133840DC01CB0184599342AD4FBF4FC80ED91E42
S1133850EA1EFB1EC092A804D092A904E092AA0416
S1133860F092AB04CC2ED12CE12CF12CC11103C06D
S1133870C4E6DDE102C0CEE5DDE10E942C1FAB0110
S1133880BC014C0D5D1D6E1D7F1D9E018BEB94E0F4
S11338900E94801FEEC0113141F0113231F080914D
S11338A0E80580FF64CF80E0E5C08091EB05837E6E
S11338B08032A9F7C12FD0E088E894E00E94AB02DF
S11338C0AE01415051096CEE75E080E00E9414078E
S11338D088E894E00E94AB022497AE016BEE75E099
S11338E08AE00E9414076B017C01CE0185519A4F36
S11338F00E94E30CC616D706E806F90681F682EFA5
S113390095E00E94BF0C6093B7057093B80580934F
S1133910B9059093BA058FEE95E00E94BF0CDC01C7
S1133920CB01BB2780934B0590934C05A0934D0589
S1133930B0934E0580E00E94280C123108F04DC06F
S11339408091950590919605019720E1E7E9F5E0CE
S1133950DF01322F1D923A95E9F731E03093970554
S113396036E0ECEEF5E0A8E9B5E001900D923A9569
S1133970E1F780939E0590939F05E7E9F5E0A7EAB8
S1133980B5E001900D922A95E1F782E08093A705B6
S113399088E894E00E94AB0240E150E067E975E0FA
S11339A080E00E94140788E894E00E94AB0240E1A2
S11339B050E067EA75E080E00E94140780914F05AB
S11339C09091500584729927892B19F566EF75E05B
S11339D087ED91E00E9412091CC088EFE82E85E073
S11339E0F82EC3E0C7010E94C50CAB01BC01411510
S11339F051056105710531F00FEF20E030E08C2FA7
S1133A000E94B20FCF5F83E0E80EF11CC83051F77B
S1133A1097CF80914F059091500585FF11C030914B
S1133A20550520915305315048F0E22FF0E0E0585D
S1133A30FB4FE491EF3FB9F32150F5CF20935305A9
S1133A4089759D7F9093500580934F051092E705EB
S1133A500E9495098091F6058F708093CE05809120
S1133A60F705811101C081E08093C60586E00E94BC
S1133A700C1A81E0DF91CF911F910F91FF90EF908D
S1133A80DF90CF9008958091EA0581110AC02091BA
S1133A90CE0544ED5BE068ED78EB85E090E00C94B6
S1133AA0C50A0E94931B882391F308958091EA0527
S1133AB0811102C01092E8050C94931B88E00C94C9
S1133AC00C1A85E00C940C1A0C944F148091EA059E
S1133AD0882351F084E08093E8050E943A108823FB
S1133AE019F08DE00C940C1A0C944F1480914F052E
S1133AF087FD06C061E677E087ED91E00E94120938
S1133B008091EA05811198C0E091E705EE2391F1D7
S1133B10E83070F5EF5FE093E705F0E0EF5AFB4F14
S1133B20949180915305915048F0E82FF0E0E058CB
S1133B30FB4FE491EF3FB9F38150F5CF60E80E9469
S1133B40AB0C6091AC047091AD048091AE04909183
S1133B50AF0443E00E94890A80914F05909150057B
S1133B608F779093500580934F050E944F1462C045
S1133B7080E601C080E28093E8058091C405803826
S1133B8019F08F5F8093C4051092EA051092E9053D
S1133B9080914F05909150059C01277730935005F3
S1133BA020934F052091E805277059F094FF09C030
S1133BB087779F7E9093500580934F058FE00E94F6
S1133BC00C1A8AE00E940C1A8091C4058931ECF029
S1133BD080915305E82FF0E0E058FB4FE491EF3F6C
S1133BE009F0815060E80E94AB0C8CE08093C4051E
S1133BF080914F059091500580629061909350059B
S1133C0080934F058EE00E940C1A8091D50588237D
S1133C1089F090914F0591FF06C082E00E940C1A32
S1133C201092D50507C081508093D505811102C03B
S1133C300E94DC0B81E008950E943A108111A8CF04
S1133C409091E80590FF60CF08958091EA05811175
S1133C500EC0A091C605B0E0119624E234EF0E9494
S1133C6042352091CE054CEC5BE00C94C50A0E94D1
S1133C70761D882371F308958091EA0581110BC0A4
S1133C801092E8050E942C1F645973428D4F9F4F78
S1133C9042E00E94890A0C94761D0C94AB0CCF93DD
S1133CA080E00E9465238BEB94E00E942E1F8DE937
S1133CB091E0E8EAF4E0DF019C011D9221503040DC
S1133CC0E1F70E949022C82F0E9490222C2F30E00E
S1133CD0322F2227282B3093960520939505109296
S1133CE0500510924F051092540580E88093CA0540
S1133CF01092CE0588E096EEA3EDB3E38093CF0552
S1133D009093D005A093D105B093D20521E02093E0
S1133D10C6058093E3059093E405A093E505B0936D
S1133D20E60583E08093D7058FEF8093D805CF9184
S1133D3008950E944F1E0E94D4138CE00C940C1A18
S1133D4080E490E09093500580934F05089580910E
S1133D504F05909150059C012860309350052093A5
S1133D604F0582FF1092E7050C944F141F93CF93D5
S1133D70DF934533B0F4122FC42FD82F611571058A
S1133D8029F050E081E695E00E94043910935F0524
S1133D90D0935E05C09360050E94A71E80E090E06A
S1133DA002C08EEF9FEFDF91CF911F910895EF92A4
S1133DB0FF920F931F9360934B0570934C05809370
S1133DC04D0590934E052093B7053093B805409365
S1133DD0B9055093BA050115110541F080E1F801C8
S1133DE0A7E9B5E001900D928A95E1F7E114F10499
S1133DF041F080E1F701A7EAB5E001900D928A95C0
S1133E00E1F780E00E94280C80914F0590915005C5
S1133E1089759D7F98609093500580934F051F91FD
S1133E200F91FF90EF900C9495091092C5058111A4
S1133E3002C080E801C084EF8093C405089584E043
S1133E40E2ECF2E0DF011D928A95E9F70E94320963
S1133E500E9421220C94A01E0C946508CF93DF933A
S1133E60EC010E94CA08E091C202F091C302A2ECE4
S1133E70B2E0309769F0CE17DF0729F48881998181
S1133E808D939C9315C0DF010190F081E02DF1CF5B
S1133E90E4ECF2E080819181009751F0C817D907D2
S1133EA029F4888199819183808302C0FC01F2CF37
S1133EB0DF91CF910C94D1080F931F93CF93DF938D
S1133EC0EC018B010E94CA08CE010E942E1F1F83A1
S1133ED00E8319821882E091C402F091C502A4EC09
S1133EE0B2E0309729F0DF010190F081E02DF9CFA5
S1133EF0CD93DC93DF91CF911F910F910C94D10856
S1133F00CF92DF92EF92FF920F931F93CF93DF93A1
S1133F10EC016A017B0189010E94CA08CE010E945A
S1133F202E1FCA82DB82EC82FD821F830E831982DC
S1133F301882E091C202F091C30222EC32E0309781
S1133F40A9F082819381A481B5818C199D09AE0960
S1133F50BF09181619061A061B061CF4F983E88310
S1133F6005C09F010190F081E02DE9CFF901D183D3
S1133F70C083DF91CF911F910F91FF90EF90DF905D
S1133F80CF900C94D108CF93DF930E94CA08C091BC
S1133F90C402D091C502209739F088819981909309
S1133FA0C5028093C4021BC0E091C202F091C30217
S1133FB0309799F062817381848195810E94B2085F
S1133FC0882359F0C091C202D091C302888199819B
S1133FD09093C3028093C20202C00E940A090E9405
S1133FE0D108209731F0EE81FF81CE01DF91CF918E
S1133FF00994DF91CF910895CF93DF93D82FC62FE3
S113400080E00E942B088D2F80680E945E088C2F10
S11340100E945E0881E0DF91CF910C942B08CF932E
S1134020DF938091B6049091B704D82FD77053E0F2
S1134030969587955A95E1F78370813029F070F051
S1134040823021F480E90BC080E809C068E471E0A3
S11340508CE092E00E94120980E001C080E7609148
S1134060B6047091B7049B0145E0369527954A95AF
S1134070E1F72370C82F223041F0233041F0213082
S113408011F0C26005C0C46003C0C66001C0C8604E
S1134090672F77276115710521F0C16082E20E94C4
S11340A0FC1F6C2F8DE10E94FC1F6D2F6295607FB9
S11340B0605A8091B60487FF64608EE10E94FC1F01
S11340C0D550D23068F48091B6049091B70423E0BF
S11340D0969587952A95E1F7837011F46CE001C0F9
S11340E064E086E2DF91CF910C94FC1FAF92BF9203
S11340F0CF92DF92EF92FF920F931F93CF93DF93B0
S11341008091B0049091B104A091B204B091B30431
S11341109C01AD0160E070E080E090E003E10E946A
S11341206D36A12CE8E4BE2EF8EECF2EDD24D39418
S1134130E12CF12C00E010E00E94C935C22FB32E0F
S11341406A017B01182FD92F00E10E948836622F63
S113415086E00E94FC1F2C2F3B2DA601B701812F66
S11341609D2F08E00E948836622F87E00E94FC1F82
S11341706C2F88E0DF91CF911F910F91FF90EF900A
S1134180DF90CF90BF90AF900C94FC1FCF93C82FBB
S113419080E00E942B088C2F8F770E945E0880E0BD
S11341A00E945E08C82F81E00E942B088C2FCF91BB
S11341B00895CF93C82F81E00E94C620887F682F7E
S11341C06C2B81E0CF910C94FC1FCF93C82F68E82F
S11341D081E00E94FC1F81E00E94C62087FD06C08A
S11341E061E272E08CE092E00E94120981E00E9498
S11341F0D920C23049F46AE08DE10E94FC1F60E7D7
S11342008EE10E94FC1F04C00E940F200E947620B1
S113421061E28CE00E94FC1F60E483E20E94FC1FC8
S113422083E30E94C620682F606483E30E94FC1F1E
S11342306091B8048FE10E94FC1F64E389E30E944B
S1134240FC1F60EC80E40E94FC1F6FEF82E10E947F
S1134250FC1FEC2FF0E0E856FB4F6491609581E180
S11342600E94FC1F80E00E940708C1110CC06091ED
S1134270AC047091AD048091AE049091AF040E949F
S11342807C0886E001C085E0CF910C94D920609130
S1134290BA04613124F462301CF462E001C06FE0BE
S11342A06F70606889E00E94FC1F8AE50E94C62046
S11342B0682F64608AE50C94FC1FCF93C82F81E0BB
S11342C00E94C620877031F064E972E08CE092E0CD
S11342D00E9412098091B604877009F071C0CC2342
S11342E031F062E672E08CE092E00E94120968E02C
S11342F081E00E94FC1F81E00E94C62087FF06C067
S113430066E672E08CE092E00E94120981E00E946D
S1134310D9200E94762061E28CE00E94FC1F6EE1AD
S11343208DE00E94FC1F6BE082E10E94FC1F62E1B1
S113433083E10E94FC1F6AEA8FE10E94FC1F62E194
S113434087E20E94FC1F68ED80E30E94FC1F60E48A
S113435081E30E94FC1F61EC88E20E94FC1F64E977
S113436089E20E94FC1F61EC8AE20E94FC1F6FEF4D
S113437081E20E94FC1F62E082E00E94FC1F60E870
S113438083E00E94FC1F61E084E00E94FC1F69E955
S113439085E00E94FC1F68E380E40E94FC1F80E02B
S11343A00E9407086091AC047091AD048091AE0442
S11343B09091AF040E947C0885E0CF910C94D920A1
S11343C08C2FCF910C94E5200F931F93CF93DF9301
S11343D0D82F80E00E942B0880E00E945E080BEE3C
S11343E015E0C0E0CD1741F080E00E945E08F801BE
S11343F081938F01CF5FF6CF81E0DF91CF911F9141
S11344000F910C942B080F931F93CF93DF93D82F06
S113441080E00E942B0880E80E945E080BEE15E005
S1134420C0E0CD1739F0F80181918F010E945E0838
S1134430CF5FF7CF81E0DF91CF911F910F910C9463
S11344402B08AF92BF92CF92DF92EF92FF921F930D
S1134450CF93DF930E94CA0880E00E940F080E9455
S11344602C1F625C7F4F8F4F9F4F0E947C0882E01D
S11344700E940F080E942C1F685C7E4F8F4F9F4F35
S11344800E947C0880E00E94D92082E40E94C62019
S1134490823131F061EB72E08CE092E00E9412090B
S11344A082E00E94E52081E00E94C620877085306A
S11344B0D1F7C6ECD2E095EDA92E92E0B92E88E0B2
S11344C0E82EF12C8CE20E94C620182F11708CE289
S11344D00E94C620212F30E080FBCC24C0F8D12CD0
S11344E02C153D0579F38981880F182B198381E0F8
S11344F0E81AF10839F72196AC16BD0601F780E1F8
S11345008093C60280E00E94D920DF91CF911F9151
S1134510FF90EF90DF90CF90BF90AF900C94D108B4
S1134520CF93C091C602C11107C06FED72E08CE059
S113453092E00E9412090AC0C03141F440E150E007
S113454066EC72E080E00E941407C0E0EC2FF0E01B
S1134550EA53FD4F8081CF5FC093C602CF91089587
S1134560CF92DF92EF92FF92CF930E942C1F6B01A8
S11345707C0181E00E94C62087FF64C082E10E9422
S1134580C62083FF0EC082E0C81AD108E108F108F2
S1134590C092A804D092A904E092AA04F092AB04B9
S11345A048C086FF43C0E091B604F091B704CF0140
S11345B023E0969587952A95E1F7837061F4E77077
S11345C0F0E0EE0FFF1FE657FB4F85919491C81A58
S11345D0D90AE108F108C092AC04D092AD04E0928B
S11345E0AE04F092AF048DE10E94C62082FF02C0A7
S11345F082E201C083E10E94C6208093EA0580E143
S11346000E94C620682F8DE00E94FC1F8091EA055D
S11346100E94E42189E10E94C6208093B5048AE1C6
S11346200E94C6208D538093B40403C087FD10926A
S1134630EA056FEF81E10E94FC1F6FEF82E10E94A7
S1134640FC1F33C08EE30E94C620C82F8FE30E9454
S1134650C62083FF09C0C092A804D092A904E092A6
S1134660AA04F092AB0421C082FF14C0C092AC042F
S1134670D092AD04E092AE04F092AF0482E30E94C3
S1134680C6208093EA050E94E4211092B50410929A
S1134690B4040BC0C2FF03C01092EA0506C062E373
S11346A073E08CE092E00E94120980E00E94D9201D
S11346B06091C1047091C2048BEB94E0CF91FF90A0
S11346C0EF90DF90CF900C945C1FCF93C82F0E9483
S11346D0CA08C13059F040F0C23009F4B4C0C33044
S11346E009F0B4C081E0B0C080E06DC081E00E94F8
S11346F0C620877031F06BE072E08CE092E00E949B
S113470012098091B604877009F060C060E181E00D
S11347100E94FC1F81E00E94C620803131F06DEAC6
S113472071E08CE092E00E94120981E00E94D9209D
S113473062E082E00E94FC1F60E883E00E94FC1FAC
S113474061E084E00E94FC1F69E985E00E94FC1F8F
S113475060E085E20E94FC1F65E086E20E94FC1F87
S113476062E187E20E94FC1F60ED80E30E94FC1F6F
S113477060E481E30E94FC1F61EC88E20E94FC1F5C
S113478064E989E20E94FC1F61EC8AE20E94FC1F3A
S11347900E9476200E94472164E380E40E94FC1F6B
S11347A06091EA056F5F82E30E94FC1F6091EA0555
S11347B080E00E94FC1F8091EA050E94032281E0B0
S11347C00E94070883E00E94D92040C068E881E085
S11347D00E94FC1F81E00E94C62087FD06C069ED8F
S11347E071E08CE092E00E94120981E00E94D920DD
S11347F00E940F200E9476208AE00E94C620807FBB
S1134800682F68608AE00E94FC1F0E94472164E3CD
S113481089E30E94FC1F60EF80E40E94FC1F6FEF9D
S113482082E10E94FC1F67EF81E10E94FC1F60E0AF
S11348308EE00E94FC1F60E08DE00E94FC1F6091EE
S1134840EA0582E2B6CF80E00E945D21CF910C940C
S1134850D1082F923F924F925F926F927F928F92E4
S11348609F92AF92BF92CF92DF92EF92FF920F93FB
S11348701F93CF93DF93EC01F62E042FE22E862FA5
S113488090E0FC01E155FB4F1491FC01ED53FB4F0B
S1134890E491F0E0EE0FFF1FE952FB4FC590D49076
S11348A061E08F2D0E946C3260E08F2D0E94A8324F
S11348B0093038F0602F70E080E090E00E94C3314E
S11348C00AC088EE93E09C01029FC001039F900DF3
S11348D011240E94FF3160E08F2D0E946C3280E928
S11348E091E0D6012C91212321F00197D1F78DEF8E
S11348F05EC088EC90E0F6012081212321F4019729
S1134900D1F78CEF54C088EC90E0D6012C91212390
S113491021F00197D1F78BEF4AC058E288EC90E080
S113492020E030E0E8ECF0E000E060E0312C40E82A
S1134930252E2E1878EC872E912CA12CB12CD60183
S11349407C91712361F5002351F1251698F48E179B
S11349509F0708F4FC01240135014E1A5F0A61081F
S1134960710882E075946794579447948A95D1F7B7
S1134970920107C07F01E21AF30AE816F90608F06B
S1134980642B469549F4CE01830D911DDC011896E4
S11349906C93339460E040E8515088EC90E00197C8
S11349A029F0072F5111CBCF80E001C08EEFDF91AA
S11349B0CF911F910F91FF90EF90DF90CF90BF9018
S11349C0AF909F908F907F906F905F904F903F90AB
S11349D02F900895FF920F931F93CF93DF93EC01D1
S11349E08D85882309F0F89421E042E1CE010E94EC
S11349F02924F82E8D85882309F0789408850F776B
S1134A0008871A851F771A87602F70E080E090E08E
S1134A100E94D22C688379838A839B83612F70E000
S1134A2080E090E00E94D22C6C837D838E839F83F0
S1134A3099858B85890F080F100F8C85181302C078
S1134A408F2D01C08FEFDF91CF911F910F91FF90B8
S1134A50089580E090E008951F920F920FB60F9290
S1134A6011242F933F934F935F936F937F938F936F
S1134A709F93AF93BF93EF93FF93E0911803F0914B
S1134A801903309709F451C0968DA685B78585859D
S1134A9091FF04C09C91892329F447C09C918923E8
S1134AA009F043C0A389B4899C91858980958923A1
S1134AB08C93868997890197F1F7608D718DA6850E
S1134AC0B785558538E020E0CB010197F1F7822FB7
S1134AD090E095958795282F4C91452309F02068FF
S1134AE0315091F7868D81FD20958091D70290E019
S1134AF001968F7399273091D602381749F0A09107
S1134B00D702B0E0A852BD4F2C938093D70203C0C4
S1134B10868D8160868F828D938D0197F1F7A389AD
S1134B20B4899C918589892B8C93FF91EF91BF91D6
S1134B30AF919F918F917F916F915F914F913F9131
S1134B402F910F900FBE0F901F901895EF92FF9228
S1134B501F93CF93DF93EC01162F7A016A8188812A
S1134B6099810E94A62B88819981DC01ED91FC91A9
S1134B700190F081E02D612F0995888199810E942F
S1134B802A2C882311F012E001C010E041E06A8170
S1134B90888199810E94272C88819981DC01ED917B
S1134BA0FC910284F385E02D0995F7018083812F20
S1134BB0DF91CF911F91FF90EF900895CF93DF93F2
S1134BC000D0CDB7DEB7FC01718360831A8220E187
S1134BD037E29A819F5F9A8321503109D1F7198274
S1134BE0AE014F5F5F4F60E2CF010E94A6258111A5
S1134BF005C081E09981913809F480E00F900F900D
S1134C00DF91CF910895EF92FF920F931F93CF936B
S1134C10DF93EC01E62E8A01F22E6A818881998164
S1134C200E94A62B88819981DC01ED91FC91019071
S1134C30F081E02D6E2D0995888199810E942A2C9E
S1134C40811119C04F2D6A81888199810E94272C76
S1134C50F801EF0DF11D7F0188819981DC01ED914F
S1134C60FC910084F185E02D0995892B31F00E1516
S1134C701F0529F402C082E00FC080E00DC08881C6
S1134C809981DC01ED91FC910284F385E02D099575
S1134C90F80181938F01E0CFDF91CF911F910F91A4
S1134CA0FF90EF9008950F931F93CF93DF93EC0140
S1134CB0062F142F6A81888199810E94A62B8881EE
S1134CC09981DC01ED91FC910190F081E02D602F40
S1134CD0099588819981DC01ED91FC910190F08125
S1134CE0E02D612F0995888199810E942A2C8823BF
S1134CF011F082E001C080E0DF91CF911F910F910C
S1134D000895EF92FF920F931F93CF93DF938C013B
S1134D10E62EEA01F22EDC0112966C9112978D9127
S1134D209C910E94A62BF80180819181DC01ED9178
S1134D30FC910190F081E02D6E2D0995FE01EF0D9F
S1134D40F11D7F01D8018D919C91CE15DF0549F0AD
S1134D50DC01ED91FC910190F081E02D69910995C0
S1134D60F1CF0E942A2C882311F082E001C080E058
S1134D70DF91CF911F910F91FF90EF900895FC0167
S1134D806283108A1786128A118A80E090E4ACE16B
S1134D90B6E483839483A583B68317821086118631
S1134DA01286138A148A158A168A1486138616861E
S1134DB0158608950F931F93CF93DF9300D000D0EF
S1134DC0CDB7DEB78C0124E0AE014F5F5F4F62E0E8
S1134DD00E94032681110FC029813A81322723279B
S1134DE03227F801368725872B813C8132272327F8
S1134DF03227348723870F900F900F900F90DF9105
S1134E00CF911F910F910895CF93DF931F92CDB748
S1134E10DEB7AE014F5F5F4F60E00E94A625898137
S1134E2081700F90DF91CF910895CF93DF931F92FC
S1134E30CDB7DEB7AE014F5F5F4F60E00E94A6259D
S1134E40811105C0898183FB882780F901C080E036
S1134E500F90DF91CF910895CF93DF931F92CDB739
S1134E60DEB7AE014F5F5F4F60E00E94A62581115F
S1134E7004C089818295817001C080E00F90DF9128
S1134E80CF910895EF92FF921F93CF93DF931F92D8
S1134E90CDB7DEB77C01162FAE014F5F5F4F61E0E7
S1134EA00E94A625811110C0612F153008F064E01E
S1134EB020E1629FC001112449814F78482B498326
S1134EC061E0C7010E9453260F90DF91CF911F919B
S1134ED0FF90EF9008950F931F93CF93DF9300D02B
S1134EE000D01F92CDB7DEB78C018091060190915E
S1134EF00701A0910801B091090189839A83AB83CA
S1134F00BC83C8010E94DE2581113CC024E0AE01AF
S1134F104F5F5F4F6FEFC8010E9481261D8280E8BA
S1134F209EE32D812F5F2D830197D9F7C8010E943D
S1134F300427882311F083E025C0C8010E942C2790
S1134F408823C9F3D80112966C9112978D919C9184
S1134F500E94A62BF80180819181DC01ED91FC91E6
S1134F600190F081E02D64EF0995F8018081918131
S1134F700E942A2C811105C061E0C8010E944227C9
S1134F8001C082E00F900F900F900F900F90DF916F
S1134F90CF911F910F9108950E946B2791E0811189
S1134FA090E0892F08954F925F926F927F928F9233
S1134FB09F92AF92BF92EF92FF920F931F93CF9362
S1134FC0DF9300D000D0CDB7DEB77C014A015B018E
S1134FD02801390120E030E048EC51ECC301B20172
S1134FE00E949E2C87FD55C020E030E048E452E446
S1134FF0C301B2010E94842D18160CF44AC020E0AB
S113500030E0A901C501B4010E949E2C87FD41C076
S113501020E030E048EC52E4C501B4010E94842D44
S11350201816BCF120E030E04AE754E4C501B401AD
S11350300E94892D0E94A32C66507F4F8F4F9F4F53
S113504024EF822E99249394A12CB12CA5019401D0
S11350500E94E53429831A8220E030E04AE754E4D0
S1135060C301B2010E94892D0E94A32C6E557D4973
S11350708F4F9F4FA50194010E94E5342B831C821E
S113508024E0AE014F5F5F4F65E0C7010E948126B7
S113509001C085E00F900F900F900F90DF91CF919A
S11350A01F910F91FF90EF90BF90AF909F908F90C2
S11350B07F906F905F904F900895FC018385948555
S11350C00895FC01858596850895CF93CFB7F8940C
S11350D080911D03811127C0EDECF4E08491E9EB8C
S11350E0F4E09491E82FF0E0EE0FFF1FE551FB4F41
S11350F0A591B491EC91E92321F461E08AE00E9446
S1135100A83261E08AE00E946C328CB580618CBD6B
S11351108CB580648CBD61E08DE00E946C3261E0EE
S11351208BE00E946C3280911D038F5F80931D037E
S1135130CFBFCF91089510928B0381E080938903B0
S11351401092880361E082E10E94A83261E083E169
S11351500E94A832E9EBF0E080818E7F8083808119
S11351608D7F808380E28093B80085E48093BC00C7
S11351700895413208F043C090918B039111FCCF04
S113518091E090938B03209389032FEF20931E03C8
S113519010926303240F2093620390938A039091E7
S11351A08A03880F892B80938A0380918803813036
S11351B061F41092880380918A038093BB008091EC
S11351C0BC0083FDF8CF85EC01C085EE8093BC0064
S11351D080918B038130E1F380916303841710F491
S11351E040916303A4E6B3E0962FFB018E2F891B45
S11351F0841718F48D918193F9CF842F089580E05A
S113520008950F93413208F04AC090918B03911195
S1135210FCCF32E030938B03009389033FEF30934C
S11352201E031092630340936203562FA4E6B3E077
S1135230FB013E2F351B341718F431913D93F9CF00
S113524010928A0330918A03880F832B80938A03F8
S113525080918803813061F41092880380918A03DD
S11352608093BB008091BC0083FDF8CF85EC01C026
S113527085EE8093BC00222321F080918B03823041
S1135280D1F380911E038F3F79F080911E03803209
S113529041F080911E03803331F094E005C091E029
S11352A003C092E001C093E0892F0F9108954091CB
S11352B04003262F30E0240F311D21323105DCF468
S11352C020918B032430C9F4FC0180E090E0861720
S11352D058F4309140032191DC01AE5BBC4FA30F25
S11352E0B11D2C930196F3CF80914003680F609316
S11352F0400380E0089581E0089582E0089590934A
S11353008503809384030895909387038093860391
S1135310089585ED8093BC008091BC0084FDFCCF92
S113532010928B03089585EC8093BC0010928B033C
S113533008951F920F920FB60F9211242F933F934B
S11353404F935F936F937F938F939F93AF93BF9389
S1135350EF93FF938091B900887F803609F49EC053
S113536078F5883209F45DC090F4803109F456C0B0
S113537038F4882309F4F5C0883009F44FC0F5C027
S1135380883109F44EC0803209F45FC0EEC0803425
S113539009F46AC058F4803309F457C0883309F01B
S11353A0E4C080931E030E949329DFC0803509F472
S11353B04FC0883509F45DC0883409F0D6C0D3C025
S11353C0883909F4C4C0A8F4883709F467C038F4EC
S11353D0883609F463C0803709F460C0C6C08838D1
S11353E009F4B5C0803909F45FC0803809F0BDC044
S11353F05BC0803B09F483C038F4803A09F466C08A
S1135400883A09F47CC0B1C0803C09F4A4C0883C4B
S113541009F4A1C0883B09F487C0A7C080918A031E
S113542010C09091630380916203981770F5E09126
S1135430630381E08E0F80936303F0E0EC59FC4F2B
S113544080818093BB0085EC83C080931E038BC056
S1135450E091630381E08E0F809363038091BB002E
S1135460F0E0EC59FC4F80839091630380916203D8
S11354706BC0E091630381E08E0F8093630380919E
S1135480BB00F0E0EC59FC4F8083809189038111CB
S11354906AC081E08093880384EA5EC083E08093DD
S11354A08B0310921F03CFCF80911F03803208F02B
S11354B04EC0E0911F0381E08E0F80931F03809103
S11354C0BB00F0E0E05EFC4F8083BDCF0E949329D7
S11354D080911F03803230F4E0911F03F0E0E05E1E
S11354E0FC4F108260911F0370E0E0918403F091FF
S11354F0850380E293E0099510921F0336C084E08F
S113550080938B031092410310924003E091860331
S1135510F0918703099580914003811105C081E0D2
S11355208093400310924203E091410381E08E0F87
S113553080934103F0E0EE5BFC4F80818093BB00DD
S11355409091410380914003981708F47CCF85E83B
S11355508093BC000AC085EC8093BC0010928B033E
S113556004C010921E030E948929FF91EF91BF91FC
S1135570AF919F918F917F916F915F914F913F91E7
S11355802F910F900FBE0F901F9018958091C0031C
S113559090E02091C103821B910908959091C10369
S11355A08091C003981750F4E92FF0E0EE53FC4FBC
S11355B0208130E09F5F9093C10302C02FEF3FEF43
S11355C0C9010895E091C1038091C003E81730F444
S11355D0F0E0EE53FC4F808190E008958FEF9FEF51
S11355E008950895CF93DF93EC01E0919803F0912F
S11355F099033097F1F09091C1038091C0039817FB
S1135600C0F090E0292F30E02617370754F4DE016C
S1135610A20FB31F4C91D901AE53BC4F4C939F5F63
S1135620F1CF1092C1036093C003CB01DF91CF91FE
S11356300994DF91CF910895E0919A03F0919B032F
S1135640309729F010929E0310929D0309940895B7
S1135650CF92DF92EF92FF920F931F93CF93DF933A
S11356607C01CB018A0120919C03222389F0EB0168
S11356706B01C40ED51ECC15DD0569F06991D70107
S1135680ED91FC910190F081E02DC7010995F3CFD4
S1135690642F0E945729C801DF91CF911F910F9168
S11356A0FF90EF90DF90CF900895CF93DF931F92F8
S11356B0CDB7DEB7698320919C032223D1F02091DA
S11356C09D03203240F021E030E0FC01338322834B
S11356D080E090E015C080919E03E82FF0E0E15651
S11356E0FC4F998190838F5F80939E0380939D03E9
S11356F005C061E0CE0101960E94572981E090E047
S11357000F90DF91CF910895FC011382128288EEED
S113571093E0A0E0B0E084839583A683B78386E416
S113572092E09183808308951092C1031092C00384
S113573010929E0310929D030E949B288CE19BE291
S11357400E94842982EF9AE20C947F2981E080935D
S11357509C036093BF0310929E0310929D030895CF
S11357600F93062F21E040919D036FE973E0809130
S1135770BF030E94012910929E0310929D03109270
S11357809C030F9108954F925F926F927F92AF9214
S1135790BF92CF92EF92FF920F931F93CF93DF9319
S11357A05C01F62ED42F28013901EE2021F10E944C
S11357B0A62BCE2DC43008F0C3E0C150C0F028E0C1
S11357C0C29FC0011124A301920104C056954795BC
S11357D0379527958A95D2F7CA01B901D501ED917C
S11357E0FC910190F081E02DC5010995E6CF60E0C0
S11357F0C5010E94B02B4D2FD13208F040E22C2D70
S113580062EC73E08F2D0E94B9281092C10380933B
S1135810C003DF91CF911F910F91FF90EF90CF9034
S1135820BF90AF907F906F905F904F900895CF920C
S1135830EF920F931F93C22EE12C00E010E0980129
S11358400E94C32B1F910F91EF90CF90089521E0F8
S11358500C94172C61E00C94B02B8CE893E00C941E
S1135860842B5058BB27AA270E94492C0C944A2DFC
S11358700E943C2D38F00E94432D20F039F49F3FC4
S113588019F426F40C94392D0EF4E095E7FB0C94EE
S1135890332DE92F0E945B2D58F3BA176207730763
S11358A08407950720F079F4A6F50C947D2D0EF469
S11358B0E0950B2EBA2FA02D0B01B90190010C011C
S11358C0CA01A0011124FF27591B99F0593F50F434
S11358D0503E68F11A16F040A22F232F342F44278C
S11358E0585FF3CF469537952795A795F040539584
S11358F0C9F77EF41F16BA0B620B730B840BBAF054
S11359009150A1F0FF0FBB1F661F771F881FC2F7BE
S11359100EC0BA0F621F731F841F48F487957795D2
S11359206795B795F7959E3F08F0B0CF9395880F8C
S113593008F09927EE0F9795879508950E940F2DEB
S113594008F481E008950E94632D88F09F5798F031
S1135950B92F9927B751B0F0E1F0660F771F881F70
S1135960991F1AF0BA95C9F714C0B13091F00E948A
S11359707D2DB1E008950C947D2D672F782F882715
S1135980B85F39F0B93FCCF3869577956795B395B1
S1135990D9F73EF490958095709561957F4F8F4F20
S11359A09F4F0895E89409C097FB3EF49095809525
S11359B0709561957F4F8F4F9F4F9923A9F0F92FD1
S11359C096E9BB279395F695879577956795B7954F
S11359D0F111F8CFFAF4BB0F11F460FF1BC06F5F35
S11359E07F4F8F4F9F4F16C0882311F096E911C047
S11359F0772321F09EE8872F762F05C0662371F068
S1135A0096E8862F70E060E02AF09A95660F771F7B
S1135A10881FDAF7880F9695879597F90895990F57
S1135A200008550FAA0BE0E8FEEF16161706E80764
S1135A30F907C0F012161306E407F50798F0621B85
S1135A40730B840B950B39F40A2661F0232B242B5A
S1135A50252B21F408950A2609F4A140A6958FEF79
S1135A60811D811D089597F99F6780E870E060E0CB
S1135A7008959FEF80EC089500240A9416161706E3
S1135A8018060906089500240A941216130614062B
S1135A9005060895092E0394000C11F4882352F08E
S1135AA0BB0F40F4BF2B11F460FF04C06F5F7F4F46
S1135AB08F4F9F4F089557FD9058440F551F59F02D
S1135AC05F3F71F04795880F97FB991F61F09F3FE7
S1135AD079F087950895121613061406551FF2CF10
S1135AE04695F1DF08C0161617061806991FF1CF60
S1135AF086957105610508940895E894BB27662787
S1135B007727CB0197F908950E940F2D08F48FEFA2
S1135B1008950E949C2D0C944A2D0E943C2D38F02F
S1135B200E94432D20F0952311F00C94332D0C94F6
S1135B30392D11240C947E2D0E945B2D70F3959FBA
S1135B40C1F3950F50E0551F629FF001729FBB2770
S1135B50F00DB11D639FAA27F00DB11DAA1F649F0C
S1135B606627B00DA11D661F829F2227B00DA11DBF
S1135B70621F739FB00DA11D621F839FA00D611D45
S1135B80221F749F3327A00D611D231F849F600D66
S1135B90211D822F762F6A2F11249F5750409AF08F
S1135BA0F1F088234AF0EE0FFF1FBB1F661F771F1B
S1135BB0881F91505040A9F79E3F510580F00C94E6
S1135BC0332D0C947E2D5F3FE4F3983ED4F38695F9
S1135BD077956795B795F795E7959F5FC1F7FE2B86
S1135BE0880F911D9695879597F90895FC01918DDD
S1135BF0228D892F90E0805C9F4F821B91098F73C7
S1135C0099270895FC01918D828D981731F0828D2A
S1135C10E80FF11D858D90E008958FEF9FEF0895B3
S1135C20FC01918D828D981761F0828DDF01A80FA0
S1135C30B11D5D968C91928D9F5F9F73928F90E0C2
S1135C4008958FEF9FEF0895FC01538D448D252F08
S1135C5030E0842F90E0821B930B541710F0CF9602
S1135C600895019708958AE89FE2892B49F080E01E
S1135C7090E0892B29F00E948A2F81110C94000056
S1135C800895FC01848DDF01A80FB11DA35ABF4FF5
S1135C902C91848D90E001968F739927848FA68927
S1135CA0B7892C93A089B1898C91837080648C937B
S1135CB0938D848D981306C00288F389E02D80812A
S1135CC08F7D80830895EF92FF920F931F93CF935C
S1135CD0DF93EC0181E0888F9B8D8C8D981305C038
S1135CE0E889F989808185FD26C0F62E0B8D10E0A8
