S00F000074746E2D6162702E737265635F
S11300000C9400020C9428020C9428020C942802EC
S11300100C9428020C9428020C9428020C942802B4
S11300200C9428020C9428020C9428020C942802A4
S11300300C9428020C9428020C9428020C94280294
S11300400C9459250C9428020C9457230C9489235E
S11300500C9428020C9428020C9428020C94280274
S11300600C9428020C9428025F0262026502680262
S11300706B026E027102740277027A02B102B40258
S1130080B702BA02BD023D0F410FE90FBF0FB80F0F
S11300900D10E710E710E710E710E710E710E7107E
S11300A0E710E7104F106D105374617274696E6736
S11300B000556E6B6E6F776E206576656E740045C5
S11300C0565F4C494E4B5F414C4956450045565F7F
S11300D04C494E4B5F444541440045565F5258439A
S11300E04F4D504C4554450045565F524553455479
S11300F00045565F4C4F53545F5453594E430020B0
S11301006279746573206F66207061796C6F6164C5
S113011000526563656976656420005265636569AC
S11301207665642061636B0045565F5458434F4DB8
S1130130504C4554452028696E636C756465732082
S113014077616974696E6720666F722052582077F0
S1130150696E646F7773290045565F52454A4F496B
S11301604E5F4641494C45440045565F4A4F494E0F
S11301705F4641494C45440045565F52465531005F
S113018045565F4A4F494E45440045565F4A4F49DC
S11301904E494E470045565F424541434F4E5F54DA
S11301A05241434B45440045565F424541434F4EFF
S11301B05F4D49535345440045565F424541434FC3
S11301C04E5F464F554E440045565F5343414E5F84
S11301D054494D454F5554005061636B657420710B
S11301E07565756564004F505F5458525850454EBC
S11301F0442C206E6F742073656E64696E6700BC56
S113020069C60BF748A14C29761CD8F5E43D41207A
S11302108CEF9A3CBBB49B08454C5EAF8C55EA63AB
S11302207C777BF26B6FC53001672BFED7AB76CA48
S113023082C97DFA5947F0ADD4A2AF9CA472C0B76D
S1130240FD9326363FF7CC34A5E5F171D83115047A
S1130250C723C31896059A071280E2EB27B27509E3
S1130260832C1A1B6E5AA0523BD6B329E32F845316
S1130270D100ED20FCB15B6ACBBE394A4C58CFD0DB
S1130280EFAAFB434D338545F9027F503C9FA851AB
S1130290A3408F929D38F5BCB6DA2110FFF3D2CD7E
S11302A00C13EC5F974417C4A77E3D645D1973601B
S11302B0814FDC222A908846EEB814DE5E0BDBE028
S11302C0323A0A4906245CC2D3AC629195E479E7D8
S11302D0C8376D8DD54EA96C56F4EA657AAE08BA66
S11302E078252E1CA6B4C6E8DD741F4BBD8B8A701E
S11302F03EB5664803F60E613557B986C11D9EE1C9
S1130300F8981169D98E949B1E87E9CE5528DF8C05
S1130310A1890DBFE6426841992D0FB054BB16A0C8
S113032027BE33E034C1332042C433A127BE33E1B6
S113033034C1332142C43300040000000200000031
S113034001000080000000400000002000000010B8
S11303500000000500000000000001000100010091
S1130360002020200E11140C0F12090C0F06090C8A
S1130370030609000306140E0B0805020000000022
S1130380000000000000FF0605040302010900FF4D
S1130390000000006700CC00B80154039D07C04072
S11303A00000000008000201000003040700000030
S11303B00000000000010204081020408001020433
S11303C00810200102040810200404040404040496
S11303D004020202020202030303030303000000F7
S11303E00023002600290000000000250028002B1F
S11303F00000000000240027002A0000C206B923E0
S113040011241FBECFEFD8E0DEBFCDBF11E0A0E0C6
S1130410B1E0E8E4F2E502C005900D92A03EB10718
S1130420D9F724E0A0EEB1E001C01D92AA37B207CB
S1130430E1F711E0C0E0D2E004C02197FE010E9480
S11304406927CE3FD107C9F70E94E7230C942229DC
S11304500C9400008091840387FF03C066EE71E072
S113046009C020E04CE060E071E081E00E946D1C76
S113047068ED71E087E192E00C9466240895089594
S11304800895CF93C82F0E94E31CAB01BC012AE05E
S113049030E087E192E00E9411256DE071E087E190
S11304A092E00E9459248C2F90E0FC013197EF30A8
S11304B0F10508F065C0EC5CFF4F0C94692768EC0B
S11304C071E060C068EB71E05DC067EA71E05AC03A
S11304D065E971E057C06AE871E054C060E871E012
S11304E051C068E771E04EC069E671E04BC068E551
S11304F071E048C068E271E087E192E00E946624FE
S113050080911D0487FF06C06BE171E087E192E0F2
S11305100E94662480911F048823A1F061E171E0A8
S113052087E192E00E9466244AE050E060911F0453
S113053087E192E00E94E7246FEF70E087E192E0A8
S11305400E9466240E94E31CAB01BC014059574C35
S1130550664C7F4F2AE232E080EE91E0CF910C941A
S1130560371D61EF70E00EC068EE70E00BC06AEDFD
S113057070E008C06DEC70E005C06FEB70E002C085
S113058061EB70E087E192E0CF910C946624EF92E6
S1130590FF920F931F93CF93DF93CDB7DEB7A0974E
S11305A00FB6F894DEBF0FBECDBF26E040E052EC9C
S11305B061E070E087E192E00E94F22268EA70E074
S11305C087E192E00E9466240E94D61C0E94061CC9
S11305D040E150E06FEF71E0CE0141960E94102996
S11305E040E150E06FE072E0CE0101960E941029D4
S11305F0CE0141967C018E010F5F1F4F2DE334E144
S113060041E056E261E070E080E090E00E948E1CE0
S113061001E02FE330E040EA57E26EEB73E380E061
S11306200E94690D81E00E94641182E00E946411BD
S113063080E00E94CC1C83E0809303046EE085E09C
S11306400E94041C80EE91E00E942A02A0960FB63C
S1130650F894DEBF0FBECDBFDF91CF911F910F91F4
S1130660FF90EF9008950C947A1DCF9328EE31E01B
S1130670BC01605F7F4FDC01F90140E05D91C08106
S11306805C2750834F5F34964430C1F72F5F3F4F50
S113069004966817790779F7CF910895E8EEF1E0A9
S11306A084819581948396819583978196838783AA
S11306B080859285908782878185938591878387BA
S11306C0878596859787958596879485958784876A
S11306D00895CF93DF9300D000D0CDB7DEB7FB01F0
S11306E03C969B01205F3F4FDE01119691919D93B3
S11306F02E173F07D9F799812A8129832B812A83D1
S11307002C812B839C839E012B5F3F4FDE0111962E
S11307109C91E92FE295EF7040E1E49FF0011124F0
S1130720E15EFD4F9F70E90FF11DE491ED93A21777
S1130730B30771F791E04BE1813041F0592F5078C4
S1130740990F503809F494278150F6CF898198275E
S1130750998394E0FE013196DB014C9180818427DA
S11307608D9381932E173F07C1F791506C5F7F4F94
S11307709111F0CF0F900F900F900F90DF91CF91C8
S113078008954F925F926F927F928F929F92AF9251
S1130790BF92CF92DF92EF92FF920F931F93CF936A
S11307A0DF93CDB7DEB768970FB6F894DEBF0FBE00
S11307B0CDBF8C0128EEE22E21E0F22E970180E0DD
S11307C090E0D801A80FB91FF90140E05D91508372
S11307D04F5F34964430D1F704962F5F3F4F8031FA
S11307E0910579F7DB01FE0131966E0151E1C50EE9
S11307F0D11C3F018D918193EC15FD05D9F7C301FF
S11308000E943503552453948CEEA82E81E0B82E13
S11308104E0189E1880E911C9BE1492E88EE91E0FE
S113082024E0DC0130E04C91E42FE295EF7050E1DC
S1130830E59FF0011124E15EFD4F4F70E40FF11DBF
S1130840E491EC933F5F1496343069F7215001969C
S11308502111E7CF0E944E03E8EEF1E0CE01459668
S1130860B6019F01D9015C91DC015D93CD01452F57
S1130870440F57FD4425DB014C932C5F3F4F6F5FC2
S11308807F4F8816990671F76E89998996274F8943
S1130890388D8A8984278327292F282721935D89E6
S11308A02B898527822783838C893627352723271D
S11308B0282727834527482794279387AE16BF0602
S11308C069F6B301852D0E946903C3010E943503B3
S11308D05394BAE05B12A2CF88EE91E034E0DC01DD
S11308E040E02C91E22FE295EF7050E1E59FF0019A
S11308F01124E15EFD4F2F70E20FF11DE491EC93A2
S11309004F5F1496443069F7315001963111E7CFA7
S11309100E944E03B3018AE00E946903C3010E944E
S113092035039801205F3F4FD801F70180E09081A3
S11309309D938F5F34968430D1F78FEFE81AF80ACD
S11309400C5F1F4F2017310779F768960FB6F8949C
S1130950DEBF0FBECDBFDF91CF911F910F91FF90EE
S1130960EF90DF90CF90BF90AF909F908F907F904B
S11309706F905F904F900895FC0120E1215050F05A
S113098011F0818101C080E09081990F87FD916011
S11309909193F4CF08956F927F928F929F92AF922A
S11309A0BF92CF92DF92EF92FF920F931F93CF9358
S11309B0DF93CDB7DEB760970FB6F894DEBF0FBEF6
S11309C0CDBF7B018A01282F30E0277F22303105FB
S11309D049F02430310509F4A0C0232B09F0B6C036
S11309E0D12C7BC083FD12C06DEB72E08DEC92E0E4
S11309F00E94C10330E1632ECE0101966C014DEDDE
S1130A00842E42E0942E57E8752E47C080E1EDEC29
S1130A10F2E0DF011D928A95E9F7ECCFFC01219108
S1130A20CF013C9123272D934F5F7F010150110982
S1130A304031F1F10115110589F7E42FF0E0E3539A
S1130A40FD4F80818058808301E0D601E62D1D9200
S1130A50EA95E9F76DEB72E0C6010E94C1031981C2
S1130A601078C6010E94BC04112319F088898725D7
S1130A70888B011122C0F6018191D5019C918927AF
S1130A808D935D018A169B06B9F700E010E06DEBCB
S1130A9072E08DEC92E00E94C10301151105C1F0D2
S1130AA0C7012DECA22E22E0B22ED50140E0B6CF34
S1130AB00115110561F700E0C8CF19811078C6014E
S1130AC00E94BC041123B9F288898725888BD3CF6F
S1130AD08DEC92E00E949A0A3CC08D2D90E0801724
S1130AE09107A0F56DEB72E08E0D9F1D0E94C1036E
S1130AF0B0E1DB0EF2CF0115110551F08D9190811B
S1130B0089278193015011097F01E217F30799F7AF
S1130B108091DC028F5F8093DC0201151105B1F036
S1130B2080E1EDECF2E0DE01119601900D928A95E0
S1130B30E1F76DEB72E0CE0101960E94C103DE0184
S1130B401196F7019701205F3F4FD8CF60E070E026
S1130B50CB0160960FB6F894DEBF0FBECDBFDF9118
S1130B60CF911F910F91FF90EF90DF90CF90BF90A6
S1130B70AF909F908F907F906F900895682F809191
S1130B8011018F3F11F00C94AF260895CF93DF939A
S1130B90C0911201CF3F99F0823058F4D82F61E010
S1130BA08C2F0E9473266D2F8C2FDF91CF910C9484
S1130BB0AF2660E08C2FDF91CF910C947326DF91E8
S1130BC0CF9108959091150281111CC05091FA01A2
S1130BD04091FB01992399F03FB7F8949091150245
S1130BE0913059F49DB3909313022DB39091140254
S1130BF0909592239DBB3FBF02C0309313025CBD0E
S1130C004DBD0EC0992361F02FB7F89430911502B1
S1130C1090911302313019F49DBB2FBF01C09FBFC7
S1130C20682F809110010C94AF268EBD00000DB486
S1130C3007FEFDCF8EB508950E94A325DC01CB01EC
S1130C4024E0B695A795979587952A95D1F7309185
S1130C50F801232F2B272870230F2093F801BC01C0
S1130C60CD01922B0895CF92DF92EF92FF926B0108
S1130C707C010E941C06C61AD70AE80AF90A89EE02
S1130C80C81683E0D806E104F1046CF060E170E07A
S1130C9080E090E00E94C82588EEC81A83E0D80A54
S1130CA0E108F108ECCF1C141D041E041F0464F4B5
S1130CB0C60124E0880F991F2A95E1F7FF90EF9071
S1130CC0DF90CF900C940426FF90EF90DF90CF90AC
S1130CD00895CF92DF92EF92FF926B017C010E9404
S1130CE01C06C61AD70AE80AF90A81E01C141D0476
S1130CF01E041F040CF480E0FF90EF90DF90CF906F
S1130D000895F8948091F9018F5F8093F901089513
S1130D10CF92DF92EF92FF920F931F93CF93DF93C3
S1130D208091F90181508093F901811121C0789457
S1130D3083E1C82E81E0D82ECCEFD1E010E001E0B1
S1130D40F60181916F018F3F79F0E880F12C0E94C8
S1130D50DE26E816F90641F08881802788838823F7
S1130D6019F0812F0E9467201F5F2196133041F7ED
S1130D70DF91CF911F910F91FF90EF90DF90CF9073
S1130D8008950895EAEFF1E080E5808381E08183AE
S1130D9008958C01EB0166E171E087E192E00E9425
S1130DA07824B80187E192E00E9459246AE387E13C
S1130DB092E00E945B244AE050E0BE0187E192E0A9
S1130DC00E94FF2487E192E00E94D0220E948106C3
S1130DD0FFCF1F93CF93DF93809110018F3F19F4BE
S1130DE068E170E006C0109113011F3F31F469E11E
S1130DF070E08FE191E00E94C906D0911401C09186
S1130E001501DF3F29F4CF3F19F46AE170E0F1CF17
S1130E1061E00E947326809111018F3F19F061E017
S1130E200E947326809112018F3F19F061E00E94A5
S1130E30732660E0812F0E947326DF3F21F060E07B
S1130E408D2F0E947326CF3F21F060E08C2F0E94EB
S1130E507326DF91CF911F910C94E021CF93DF9300
S1130E60CDEDD2E010921F04E091600484E0E89F8D
S1130E70F0011124E352FD4F83AD94ADA5ADB6ADA1
S1130E808C7F88879987AA87BB8783E891E19F87AE
S1130E908E87DF91CF9108951092F4031092F50399
S1130EA01092F6031092F7031092F0031092F103DC
S1130EB01092F2031092F30310928A031092FE032D
S1130EC01092FD031092FA031092F8031092020498
S1130ED010920804109200041092010410920B0462
S1130EE01092860384EF8093F9031092030488E040
S1130EF096EEA3EDB3E38093040490930504A093CA
S1130F000604B093070425E020936004809318043A
S1130F1090931904A0931A04B0931B0483E0809364
S1130F200C0408954F925F926F927F928F929F92DA
S1130F30AF92BF92CF92DF92EF92FF92CF93DF9363
S1130F40C62FA0918B03B0918C03C0908D03D090D9
S1130F508E03811109C04D01BB0FAA08BB080D2CDB
S1130F60000CEE08FF081AC0482F50E09A010E94B6
S1130F7085274B015C0187E0B594A79497948794E7
S1130F808A95D1F7D6010E9485276B017C0197E0F1
S1130F90F594E794D794C7949A95D1F7A0918F03C9
S1130FA0B09190032091090484E0C89FE0011124CA
S1130FB0C95CDC4FFE01459055906590749030E01B
S1130FC00E9485276C0D7D1D8E1D9F1DA30192011E
S1130FD00E944A272B5F2093ED02FE012591359153
S1130FE045915491ADEFBFEF0E949A27680D791D8A
S1130FF08A1D9B1DDF91CF91FF90EF90DF90CF90E2
S1131000BF90AF909F908F907F906F905F904F9024
S11310100895CF92DF92EF92FF92CF93DF93D82F70
S11310200E944720C82F0E9447202C2F30E0322FE7
S11310302227A901482BCA016C01853254EF950778
S113104020F024E2C21A24EFD20AE12CF12CDD2391
S113105071F099276D2F70E00E94142724E234EF79
S1131060DC010E948527C60ED71EE81EF91EC701A3
S1131070B601DF91CF91FF90EF90DF90CF9008956C
S1131080CF92DF92EF92FF926B017C01842F0E943A
S11310900908DC01CB018C0D9D1DAE1DBF1D2091E7
S11310A07B03222399F0C0907C03D0907D03E090D1
S11310B07E03F0907F039C01AD012C193D094E097C
S11310C05F0912161306140615068CF480937C032C
S11310D090937D03A0937E03B0937F038091840358
S11310E09091850391609093850380938403FF908E
S11310F0EF90DF90CF9008954F925F926F927F921E
S11311008F929F92AF92BF92CF92DF92EF92FF9213
S11311100F931F93CF93DF936B017C01EA0104E0EB
S1131120209FF0011124E95CFC4F85909590A590D7
S1131130B49085E08093ED026091910370919203E5
S11311406115710509F447C080E090E0A70196019C
S11311500E949F27722E032F142FB52FF62FE72FEF
S1131160582E692EA0E00E94E72884F4215031090A
S11311704F4F5F4F6F4F7F4F8F4F9F4F722E032FF5
S1131180142FB52FF62FE72F582E692E272D302F29
S1131190412F5B2F6F2F7E2F852D962D00E10E940E
S11311A0C92829013A01AAEFB0E0A50194010E94DF
S11311B08C27641575058605970524F48FEF8093B5
S11311C0ED0209C0C301B201A50194010E944A279E
S11311D02B5F2093ED024091DD025091DE0260917D
S11311E0DF027091E002C40ED51EE61EF71ED50183
S11311F0C40123E0880F991FAA1FBB1F2A95D1F7AA
S1131200C80ED91EEA1EFB1EA091ED02B0E0A50196
S113121094010E948C2797018601061B170B280B4B
S1131220390BB901A8010093E1021093E202209363
S1131230E3023093E4024D575109610971099E019B
S113124080EF92E0DF91CF911F910F91FF90EF908B
S1131250DF90CF90BF90AF909F908F907F906F90D2
S11312605F904F900C94371D88E298E19093F702B9
S11312708093F60282E00C941C218DE19BE1909313
S1131280F7028093F60282E00C941C21EDEDF2E06B
S113129021E020931D04268537852068378726871B
S11312A010921F04928F818F82E00C941C218CED8C
S11312B09BE10C9446098AEF9AE10C944609ADED42
S11312C0B2E082E080931D04E0910304F0E0E9576A
S11312D0FC4FE491F0E0EF77E0681F96FC93EE9307
S11312E01E97409104045091050460910604709186
S11312F0070418964D935D936D937C931B971092FE
S11313001F040C941C2183EF9BE19093F7028093BC
S1131310F6020C945F098DE09BE19093F7028093B1
S1131320F6020C945F098091EC039091ED03A09177
S1131330EE03B091EF03892B8A2B8B2B21F0809144
S1131340840382FF06C063EF76E084E591E00E94A7
S1131350C906809184039091850386FD2FC0109265
S11313606C041092F80310921C048E7781609093A1
S11313708503809384030E942E070E94E31CAB0123
S1131380BC014C5D594F64487F4F409366045093B1
S1131390670460936804709369044093E102509376
S11313A0E2026093E3027093E40227EC37E180EFFA
S11313B092E00E94371D83E00C941C210895CF9382
S11313C0DF9390E4E8E1F3E0DF011D929A95E9F7F9
S11313D090E2E8E5F3E0DF01292F1D922A95E9F771
S11313E0E8EFF2E0DF011D929A95E9F727E030E09B
S11313F03093790320937803811102C083E001C004
S113140080E0C8E1D3E0A8E5B3E093E0980F2FE3D0
S113141030E044E0849FF0011124E15EFC4F4591EB
S113142055916591749149935993699379932D9347
S11314303D938F5F8913EDCF88EE93E09093F9028B
S11314408093F802CEE0C093FA020E9447208F7086
S11314508093FB0284E690E0909301038093000361
S1131460C09302030E9447208F70809303038AE095
S113147090E090930903809308038BE180930A031F
S11314800E9447208F7080930B030E94E31C60939B
S11314900C0370930D0380930E0390930F036093DA
S11314A004037093050380930603909307036093EA
S11314B0FC027093FD028093FE029093FF02DF9181
S11314C0CF910895603811F0609387039091880359
S11314D0981759F080938803809184039091850331
S11314E0986090938503809384030895FC01608140
S11314F071818281938108950F931F9301970E94B4
S1131500760A272F382F492F5527A4E6B0E00E94EA
S11315108C278B019C01005C154520473343013C1B
S11315201F4C2A46310518F060E070E0CB011F9192
S11315300F910895FC0160817181828193810E94E1
S11315406F270895FC014083518362837383089558
S11315504F925F926F927F92AF92BF92CF92DF923F
S1131560EF92FF920F931F93CF93DF93EC01280127
S1131570390180E1EDECF2E0DF011D928A95E9F793
S113158081E08093DC028093CD02EF2809F480E0AF
S11315908093D20283ED92E00E94A20AB301A201D9
S11315A087ED92E00E94A20A80E1FE01ADEBB2E079
S11315B001900D928A95E1F7A501B60184E0DF91CF
S11315C0CF911F910F91FF90EF90DF90CF90BF903C
S11315D0AF907F906F905F904F900C94CB04CF921C
S11315E0DF92EF92FF9280E1EDEBF2E0DF011D92DA
S11315F08A95E9F788E0E8E2F4E0DF011D928A9534
S1131600E9F740916D0450916E0460916F047091FC
S1131610700480E294E00E94A20A4091EC0350918D
S1131620ED036091EE037091EF0384E294E00E9475
S1131630A20A40E150E060E274E080E00E94CB0442
S113164040910D0487E090E0841B91092FEF3FE067
S113165002C0359527958A95E2F7809120049091F0
S1131660210428233923C0906604D0906704E090B5
S11316706804F0906904B4E9CB0EB5E0DB1EB2E077
S1131680EB1EF11CA3E5B7E00E947627C60ED71E19
S1131690E81EF91EC0921004D0921104E0921204C4
S11316A0F092130410920E0481E090E001C0880FC0
S11316B04A95EAF760910C048E5F0E949207C61A5D
S11316C0D70AE80AF90AC0921404D0921504E092E9
S11316D01604F09217048091ED0280930F04FF909A
S11316E0EF90DF90CF900895CF92DF92EF92FF9228
S11316F0CF93DF936B017C01EA0180918403909185
S11317008503827096708230944059F40E94EF0AE7
S113171080918403909185039260909385038093D4
S113172084038091ED02873059F54091DD02509198
S1131730DE026091DF027091E0024C0D5D1D6E1DB2
S11317407F1DDB01CA010A97A109B1098093E10257
S11317509093E202A093E302B093E40288E08093C2
S1131760ED0247585109610971099E0180EF92E029
S1131770DF91CF91FF90EF90DF90CF900C94371DC5
S11317802091EE02AE01C701B601DF91CF91FF9027
S1131790EF90DF90CF900C947C082091FB0330E015
S11317A0A4E2B4EF0E94762747E559E00C94740B49
S11317B04BE559E064EB74EC84E090E00C94740B1A
S11317C0FC0143835283618370830895FC01680F95
S11317D0791F80E090E0E617F70791F021919227B6
S11317E028E0AC01440F551F97FF06C0CA0131E23F
S11317F0832730E1932701C0CA01215091F7EBCF31
S113180008950F931F93CF9380911F04813131F07A
S113181067EE73E084E591E00E94C90667E070E03A
S113182080E294E00E94E60B2091270430E099279F
S11318302817390709F081C080E294E00E94760AF3
S1131840DC01CB01BB27009180031091810320911F
S113185082033091830380179107A207B30709F02D
S11318606FC0C0916C04CC7FC0936C048091EA0279
S113187080936B048091E90280936A048091E10271
S11318809091E202A091E302B091E4028054934269
S1131890A109B1098093660490936704A093680436
S11318A0B093690483E294E00E94760A60936D0425
S11318B070936E0480936F04909370048C2F8160F6
S11318C080936C0400912F04109130046FE070E059
S11318D080E294E00E94E60B08171907A1F588E25C
S11318E094E00E94760ABB2797FDBA95A92F982FFA
S11318F0872F8093720490937304A0937404B0931D
S113190075048BE294E00E94760ABB2797FDBA9592
S1131910A92F982F872F8093760490937704A09310
S11319207804B09379048091280480937104C3608F
S1131930C0936C0482E090E008C080E090E005C0B1
S11319408FEF9FEF02C081E090E0CF911F910F9144
S11319500895282F277030E0F901EE0FFF1FE20FE2
S1131960F31FEF59FC4F53E0969587955A95E1F78D
S11319708370E80FF11D849190E08D5891090895CA
S1131980EF92FF920F931F93FC01382F3770A62F0D
S1131990B0E079F41B9603E0AA0FBB1F0A95E1F7A8
S11319A024E234EF0E94852720E533EC40E050E048
S11319B087C0632F660F660F685E353010F420E031
S11319C001C028E013E0AA0FBB1F1A95E1F7CD016F
S11319D0861B9109DC015C96E7FD03C080E190E081
S11319E002C080E090E08A0F9B1F4F2F5527452BA4
S11319F019F440E050E002C044E150E0841B950B30
S1131A0018161906D4F4621B70E0860F971F01970D
S1131A100E941427AF01A5E056954795AA95E1F7D2
S1131A20437050E04B5F5F4F469FC001479F900D4E
S1131A30569F900D1124089602C088E090E0880F0C
S1131A40991F880F991FC1963F5F63E0F695E7954C
S1131A506A95E1F7E3703E1B353050F03450E9E00D
S1131A60FDE302C0F595E7953A95E2F734E002C04C
S1131A70E9E0FDE3092E000CAA0BBB0B7C018D01F0
S1131A8004C0EE0CFF1C001F111F3A95D2F7A801E9
S1131A909701A4E2B4EF0E948C279F01F7FF02C0D4
S1131AA02F5F3F4F359527958901330F220B330B59
S1131AB0600F711F821F931F9F01FF0F440B550B73
S1131AC00E944A27CA01B9011F910F91FF90EF901C
S1131AD00895CF92DF92EF92FF920F93CF93DF930B
S1131AE0A82F803108F074C00F3FC1F56A017B0153
S1131AF080ECC81A8DEFD80A81EDE80A83E3F80A6E
S1131B0081E9C81680EDD80683E0E806F10410F4F4
S1131B10426030C06A017B0181EAD81A8CEBE80A82
S1131B2083E3F80A81ECC81687E2D80689E0E80660
S1131B30F10490F06A017B0180EAC81A81E9D80AAD
S1131B4086EDE80A83E3F80A81EEC81683E9D8062D
S1131B5084E0E806F10470F441600CC00430C4F57C
S1131B604C7FC02E000FDD08EE08FF084C295D29CC
S1131B706E297F29EA2FF0E0EF01CC0FDD1FCC0F97
S1131B80DD1FC352DD4F4BAF5CAF6DAF7EAF211590
S1131B90310519F0922F832F02C09FE380E0EE0FEE
S1131BA0FF1FE85AFC4F9083818381E090E002C0DC
S1131BB0880F991FAA95E2F7209178033091790351
S1131BC0822B932B909379038093780381E001C057
S1131BD080E0DF91CF910F91FF90EF90DF90CF9055
S1131BE008952F923F924F925F926F927F928F92BD
S1131BF09F92AF92BF92CF92DF92EF92FF920F9398
S1131C001F93CF93DF93CDB7DEB729970FB6F89420
S1131C10DEBF0FBECDBFE0901F04F12C2CE0E21616
S1131C20F10424F410921F0480E035C330912004A1
S1131C303983132F1370B1F7307E3E83303611F0A1
S1131C40303A81F781E294E00E94760AAB01BC014C
S1131C508091EC039091ED03A091EE03B091EF031A
S1131C60481759076A077B07E9F6809125048B8397
S1131C708F70A82FB0E0BD83AC834D01B8E08B0E0C
S1131C80911C170124E0221A31082814390454F253
S1131C908214930474F4F401E05EFB4F8081A82F56
S1131CA0B0E0BA83A9832C813D81275F3F4F49016E
S1131CB004C08FEF9FEF9A8389834090F003509084
S1131CC0F1036090F2037090F303809126049091E5
S1131CD0270484199509480E591E611C711CEDECEA
S1131CE0F2E0DF0120E11D922A95E9F789E480936F
S1131CF0CD0281E08093D2022092DC0283ED92E057
S1131D000E94A20AB301A20187ED92E00E94A20AF6
S1131D10ECECF3E0ADEBB2E030E101900D923A95DA
S1131D20E1F7A10160E274E082E00E94CB046B0160
S1131D307C01C101805E9B4F0E949A0AC616D70699
S1131D40E806F90609F06ECF8091F0039091F10353
S1131D50A091F203B091F303481659066A067B0674
S1131D60E8F484159505A605B7050CF45BCF019737
S1131D70A109B109481659066A067B0609F052CF33
S1131D808091F803882309F44DCF8E81803A09F0BD
S1131D9049CFA1E0B0E0BF83AE8317C0D301C20135
S1131DA00196A11DB11D8093F0039093F103A093BC
S1131DB0F203B093F303BE81B03A11F480E201C0A0
S1131DC080E08093F8031F821E828091F8038111C2
S1131DD003C02B8124FF09C0809184039091850363
S1131DE08061909385038093840310928A031092F8
S1131DF0FA038091F903803819F084EF8093F90392
S1131E003091E902832F082E000C990B805491091C
S1131E10998788878091EB029091EC020E94A90C2B
S1131E20A885B985A81BB90BB987A887B7FD08C0D1
S1131E30AF3FB10524F08EEF90E09987888718852D
S1131E401093FC0319861886A885B9852C813D81D9
S1131E50A217B3070CF0BBC1E885F985E85DFB4F19
S1131E60E0818E2F90E0FC013297E131F10508F01A
S1131E70AEC1ED5BFF4F0C946927A885B985139615
S1131E8029C1E885F985E75DFB4F1081E885F9856F
S1131E90E65DFB4F80819181E885F985E45DFB4F28
S1131EA00081288539852B5F3F4F3987288737E89C
S1131EB03093FD03202F207F09F0DBC1009709F444
S1131EC0D8C1209178033091790320953095282347
S1131ED03923232B09F0CDC1ADEDB2E020E030E091
S1131EE041E050E0022E02C0440F551F0A94E2F76D
S1131EF0BA0168237923672B71F0DB96CD90DD90CE
S1131F00ED90FC90DE97CD28CE28CF2821F4409583
S1131F105095842395232F5F3F4F1496203131052C
S1131F20F9F69093790380937803812F82958F70CB
S1131F30E82FF0E0E957FC4FE491EF3F29F490914A
S1131F40FD039D7F9093FD039091FD039F77973050
S1131F5059F40F70009386031F70E12FF0E0EA58E4
S1131F60FC4F64910E94620A81E08093FA036CCF73
S1131F7091E09093FE03A885B9851196ABC0E885DE
S1131F80F985E75DFB4F10811F7088859985865D13
S1131F909B4F0E947C0AE12FF0E0E957FC4FE4914B
S1131FA0EF3F49F0B2E8B09308046115710581056B
S1131FB0910559F062C130E830930804672B682B0F
S1131FC0692B19F021E820930804888599850596E2
S1131FD0FBC0E885F985E75DFB4F20812F3F49F47D
S1131FE0809184039091850380649093850380930A
S1131FF084032F7020937B030E94E31C60937C0373
S113200070937D0380937E0390937F0391E090937C
S11320100104A885B98512965DC0E885F985E75D58
S1132020FB4FD08088859985865D9B4F0E947C0AF2
S1132030AB01BC01E885F985E35DFB4FE081B0E8C5
S1132040B0930204411551056105710521F18E2FEC
S113205082958F702FE030E0281B3109C9012FEFE2
S11320603FEF02C0369527958A95E2F7EF708FEF20
S11320709FEF02C0880F991FEA95E2F728233923BE
S11320800FEF8D2D0E94690D882329F080910204A1
S113209083608093020488859985069695C0888517
S11320A09985875D9B4F0E947C0A611571058105A6
S11320B0910551F0609318047093190480931A04E5
S11320C090931B0481E801C080E880930B04A885E9
S11320D0B9851496B987A887B7CE80918403909167
S11320E0850381FD6EC0E885F985E55DFB4F2081A0
S11320F0209360048260909385038093840380918D
S11321000A04811106C063EE74E084E591E00E9444
S1132110C906E885F985E75DFB4F80819181BEE1C1
S1132120B89FB001B99F700D112480E090E024E2C3
S113213034EF40E050E00E94AE27E8EEAE2EF3E02C
S1132140BF2EC12CD12CE12CF12C00E010E00E9418
S1132150DB2759016A018091E1029091E202A0918A
S1132160E302B091E4028A0D9B1DAC1DBD1DAC01C0
S1132170BD0146555E406A47710940936604509319
S11321806704609368047093690410928C0310923E
S11321908B031092900310928F03109209042CE089
S11321A020936C0433E130936104865D9140A1096E
S11321B0B1098093620490936304A0936404B09380
S11321C06504888599850496998788873DCE8E8194
S11321D09F81892B31F5A981BA81AF3F2FEFB207D7
S11321E001F15101A818B9081A141B04D4F4C4014C
S11321F0805E9B4F6C014091EC035091ED03609124
S1132200EE037091EF03AB2B19F48CEC93E002C056
S11322108CED93E0EE24E394F12C930182010E946F
S1132220A80A80911C04882359F080911D049B8185
S113223095FF02C090E801C090E4892B80931D04AF
S113224080911D04A981BA81119641F48062809322
S11322501D0480921E0410921F0409C080618093A3
S11322601D0480921E04822D881980931F0481E02E
S113227012C086E88093FD0358CEA3E8A093080417
S1132280109303046093040470930504809306047C
S1132290909307049ACE29960FB6F894DEBF0FBE2A
S11322A0CDBFDF91CF911F910F91FF90EF90DF9001
S11322B0CF90BF90AF909F908F907F906F905F90E2
S11322C04F903F902F900895482F282F30E0F90128
S11322D0EE0FFF1FEE0FFF1FE352FD4F13AE14AEC0
S11322E015AE16AE220F331FF901E85AFC4F1182C6
S11322F01082E8E7F3E081E090E002C0880F991FC4
S11323004A95E2F780959095208131818223932329
S1132310918380830895CF92DF92EF92FF92809110
S1132320EC039091ED03A091EE03B091EF03892BA0
S11323308A2B8B2B09F064C08091840390918503D0
S113234080799927892B31F069E377E084E591E07E
S11323500E94C90610927B038091840390918503A7
S11323608E7D977E909385038093840310921C0442
S113237010928A030E94472063E00E9408279093EA
S11323807A038EE08093870385E08093880381E05D
S11323900E94DF09809184039091850393FF06C016
S11323A06AEB72E084E591E00E94C906C090FC02E9
S11323B0D090FD02E090FE02F090FF0288E00E94BF
S11323C00908DC01CB018C0D9D1DAE1DBF1D809342
S11323D0DD029093DE02A093DF02B093E0028091CD
S11323E08403909185038460909385038093840390
S11323F068E17BE180EF92E00E94131D81E001C05F
S113240080E0FF90EF90DF90CF9008952F923F925D
S11324104F925F926F927F928F929F92AF92BF92F0
S1132420CF92DF92EF92FF920F931F93CF93DF939C
S1132430CDB7DEB762970FB6F894DEBF0FBECDBF3F
S113244080918403909185039C01217C3327232B65
S113245009F080C54091EC035091ED036091EE03C7
S11324607091EF03452B462B472BE1F482FD1AC0F4
S113247062960FB6F894DEBF0FBECDBFDF91CF9149
S11324801F910F91FF90EF90DF90CF90BF90AF908E
S11324909F908F907F906F905F904F903F902F9080
S11324A00C948B110E94E31C2B013C01809184034A
S11324B081FF30C0409162045091630460916404D0
S11324C070916504D301C20183589F4FAF4FBF4F32
S11324D0841B950BA60BB70B181619061A061B06B8
S11324E034F468E078E084E591E00E94C9068091C4
S11324F0620490916304A0916404B09165048C011A
S11325009D010D5711092109310909831A832B8370
S11325103C8304C019821A821B821C82209184038A
S1132520309185033A8B298BC9018C739927892BA8
S113253009F4CAC3190134E22322332449895A898C
S113254053FFB9C060917803709179037A876987E2
S1132550809188038F7021E030E0D90102C0AA0F76
S1132560BB1F8A95E2F7BC87AB87AFE0930182017A
S11325701E52264B34490D871E872F87388BCD84F6
S1132580DE84EF84F888EDEDF2E080E090E0B0E0E6
S11325902A2F30E0A901082E02C0559547950A94C8
S11325A0E2F740FF12C0478D50A161A172A146011C
S11325B05701841A950AA60AB70A181419041A04AA
S11325C01B041CF4B82F6A017B01019638968430F1
S11325D0910501F72B2F30E03E832D83890163E0C1
S11325E0000F111F6A95E1F7F801E352FD4F268DA4
S11325F090E18B2E912CA12CB12C81E0820F8031A3
S113260010F081EF820F282F30E041E050E0082ED7
S113261002C0440F551F0A94E2F769857A85462360
S11326205723452B41F1F901EE0FFF1FE85AFC4FE8
S1132630408151816B857C8546235723452BD9F0F6
S1132640220F331F220F331FF901E352FD4F43AD15
S113265054AD65AD76AD437055276627772784164C
S11326609506A606B70639F4F801E352FD4F868FA6
S113267080937A0310C0915011F0282FBECF81E0CF
S113268090E00D8002C0880F991F0A94E2F78095AC
S1132690A82309F074CFC092DD02D092DE02E0924A
S11326A0DF02F092E00289899A89977F90938503EB
S11326B08093840308C0C090DD02D090DE02E090D5
S11326C0DF02F090E00220917B03809184039091DB
S11326D08503211102C090FF12C040917C035091E8
S11326E07D0360917E0370917F0397018601041B33
S11326F0150B260B370B37FF02C06A017B019C01C7
S11327002270332781FF27C02114310429F448EDB6
S113271058EB65E070E004C044E455E968E070E01B
S11327204C0D5D1D6E1D7F1D89809A80AB80BC8021
S1132730481959096A097B0914161506160617065D
S113274054F440E1C501B4016C567A4F8D4F9F4F4C
S11327500E944008BCC2B301A20143585F4F6F4FAF
S11327607F4F46015701841A950AA60AB70AB7FE95
S11327709EC290908803232809F444C085FF0FC0AB
S113278080918A03815048F0E92DF0E0EA57FC4F2C
S1132790E491EF3FB9F39A94F5CF80EC01C080E067
S11327A08093200481E294E00E943E0289E294E056
S11327B00E943F029091CA038091CB03909331040D
S11327C0809332048DEB92E00E94400243E150E09A
S11327D060E274E08AE00E94CB04AB01BC0183E3B5
S11327E094E00E94E00B87E180931F048091CA0368
S11327F09091CB0301969093CB038093CA0388ED09
S11328009BE0DCC14091F0035091F1036091F2032D
S11328107091F30340385F4F6F4F7F4FF0F060E5E6
S11328207CE180EF92E062960FB6F894DEBF0FBEB3
S1132830CDBFDF91CF911F910F91FF90EF90DF906B
S1132840CF90BF90AF909F908F907F906F905F904C
S11328504F903F902F900C94131D20911C04211134
S11328600DC04091F4035091F5036091F60370910B
S1132870F7034F3F5F4F6F4F7F4F89F29C012871E1
S113288033272031310521F0809095038D8201C0DA
S11328901D82827094708230944089F480E1809328
S11328A0280480910D0410E1819FC00111249091AE
S11328B00C04892B809329040AE010E002C008E08C
S11328C010E080910104882349F0F801E05EFB4F99
S11328D084E080830F5F1F4F10920104409108042D
S11328E0442379F0C80183529D4FFC01ED5BFE4FF8
S11328F055E050833196437040830E5F1F4F109212
S113290008048091FE03882399F0C80183529D4FE7
S1132910FC01ED5BFE4F46E0408331964FEF408370
S113292031964091FC0340830D5F1F4F1092FE03CC
S11329304091FD03442379F0C80183529D4FFC016B
S1132940ED5BFE4F53E050833196477040830E5F3A
S11329501F4F1092FD0380910A04882339F0F80177
S1132960E05EFB4F82E180830F5F1F4F8091FA038B
S1132970882339F08091F90387FD1092F9031092AE
S1132980FA0340910B04442379F0C80183529D4F0C
S1132990FC01ED5BFE4F51E1508331964170408361
S11329A00E5F1F4F10920B0440910204442379F0F0
S11329B0C80183529D4FFC01ED5BFE4F57E05083ED
S11329C03196437040830E5F1F4F109202042031F2
S11329D0310521F04D814B5F498302C054E0598396
S11329E0402F8980800E8982582D513430F4FF2481
S11329F0F3942031310531F404C094E0892E800E23
S1132A008982F12C80E4809320049091F803209132
S1132A10FF03292B9091F9039095892F881F88270C
S1132A20881F8295880F880F807C98EF940F922BD3
S1132A30892B809325044091EC035091ED03609120
S1132A40EE037091EF0381E294E00E94A20A2091C8
S1132A501C04211113C08091F4039091F503A091FB
S1132A60F603B091F7030196A11DB11D8093F40301
S1132A709093F503A093F603B093F7038091F403C6
S1132A809091F50301978093260490932704109264
S1132A90F803FF2009F443C080919403882341F094
S1132AA080E880932004211103C081E080931C04FA
S1132AB0F801E05EFB4F80919303808398012F5DC2
S1132AC03B4F69018D80A82CB12CA50166E973E008
S1132AD0C9010E94192980919303882319F08CED70
S1132AE093E002C08CEC93E0A114B104C1F0009116
S1132AF0F4031091F5032091F6033091F70301508C
S1132B001109210931094091EC035091ED036091C1
S1132B10EE037091EF03E12CF12C0E94A80A898046
S1132B20082D10E004501109C090F403D090F5036F
S1132B30E090F603F090F70321E0C21AD108E1080F
S1132B40F1084091EC035091ED036091EE03709114
S1132B50EF03EDECF2E0DF01E0E18E2E1D928A94AA
S1132B60E9F789E48093CD021092D2020093DC024B
S1132B7083ED92E00E94A20AB701A60187ED92E0DC
S1132B800E94A20AECECF3E0ADEBB2E080E1A82EE7
S1132B9001900D92AA94E1F7A80160E274E082E04A
S1132BA00E94CB04AB01BC01C801805E9B4F0E9414
S1132BB0E00B898080921F048DEC9BE09093F702D8
S1132BC08093F602E92DF0E0E957FC4FE4918091FF
S1132BD0890300E2809FC0011124EF798E2B90932A
S1132BE0EC028093EB029092EE02209184033091E8
S1132BF085032F76367F20683860309385032093D1
S1132C008403E0917A0314E0E19FF0011124E3527C
S1132C10FD4F83AC94ACA5ACB6AC60911F040E948C
S1132C20C00C6B017C01D501C40183709927AA27CC
S1132C30BB272CEF82228092E5029092E602A092BA
S1132C40E702B092E80243E0880F991F4A95E1F742
S1132C50FC01E352FD4F858D8093EF02A38DB48D6B
S1132C60A70196010E948C27DC01CB01840D951DE0
S1132C70A61DB71D878F90A3A1A3B2A380917B0348
S1132C80882399F004C0CC0CDD1CEE1CFF1C8A9533
S1132C90D2F7C40CD51CE61CF71CC0927C03D0925E
S1132CA07D03E0927E03F0927F0381E0B8C0232B82
S1132CB009F4DCC0C114D104E104F10459F4C12CB9
S1132CC0D12C7601C39406C0398931FF43C1C12C8C
S1132CD0D12C7601809184039091850391FF65C086
S1132CE0B301A20143585F4F6F4F7F4F4D835E8303
S1132CF06F8378878091140490911504A091160431
S1132D00B0911704AC01BD018D809E80AF80B88462
S1132D10481959096A097B0977FF9BC010910E0471
S1132D2017FD43C0E1E0F0E000900D0402C0EE0F97
S1132D30FF1F0A94E2F71E0F10930E0417FD35C00F
S1132D40A12FB0E020E030E345E750E00E948C275B
S1132D50DC01CB0127E0B595A795979587952A9532
S1132D60D1F78090100490901104A0901204B090B8
S1132D701304880E991EAA1EBB1E82E08E0F60915A
S1132D800C04810F0E949207861A970AA80AB90AAE
S1132D908092140490921504A0921604B092170421
S1132DA08091ED0280930F04A5CFC114D104E104F6
S1132DB0F10461F0D701C60189809A80AB80BC80A0
S1132DC088199909AA09BB09B7FD50C00E942E07AA
S1132DD0809161048093ED02809162049091630478
S1132DE0A0916404B09165048093E1029093E2029F
S1132DF0A093E302B093E402D301C20189809A80D4
S1132E00AB80BC8088199909AA09BB09B7FD52C0D7
S1132E1088E298E19093F7028093F60282E062964A
S1132E200FB6F894DEBF0FBECDBFDF91CF911F91D7
S1132E300F91FF90EF90DF90CF90BF90AF909F9055
S1132E408F907F906F905F904F903F902F900C9455
S1132E501C21C114D104E104F10499F1B701A601C4
S1132E60481B590B6A0B7B0B77FF2BC0B701A601DC
S1132E704D575109610971092BE13BE180EF92E063
S1132E8062960FB6F894DEBF0FBECDBFDF91CF912F
S1132E901F910F91FF90EF90DF90CF90BF90AF9074
S1132EA09F908F907F906F905F904F903F902F9066
S1132EB00C94371D24E339E049815A816B817C816C
S1132EC0DDCF20910F042093ED028093E1029093D3
S1132ED0E202A093E302B093E402409118045091FB
S1132EE0190460911A0470911B044093E5025093F5
S1132EF0E6026093E7027093E802E0910C04F0E0CC
S1132F00E957FC4FE491F0E0EF77E068F093EC02CE
S1132F10E093EB0210921F0484199509A609B709DE
S1132F2083389F4FAF4FBF4F34F46EE878E084E5A9
S1132F3091E00E94C9064091E1025091E202609141
S1132F40E3027091E4024D575109610971092DE3BF
S1132F5039E094CF62960FB6F894DEBF0FBECDBFB2
S1132F60DF91CF911F910F91FF90EF90DF90CF9061
S1132F70BF90AF909F908F907F906F905F904F9095
S1132F803F902F9008950E9441020C94061280E015
S1132F900E941C2180EF92E00E94E51C80911F0496
S1132FA081110BC080918403909185038C7F909351
S1132FB085038093840381E049C00E94010C1816A4
S1132FC019069CF010921F0483E00E941C2140917A
S1132FD0660450916704609168047091690427EC59
S1132FE037E180EF92E00C94371D10928C0310921D
S1132FF08B031092900310928F0310920904809116
S11330006C048C6080936C048BE0809361048091E9
S1133010660490916704A0916804B0916904805893
S11330209F4EA548BF4F8093620490936304A0937E
S11330306404B093650480918403909185038E7F2A
S11330408260909385038093840382E00C94C31779
S1133050CF92DF92EF92FF92CF9380911F04882347
S113306009F47FC0C0906604D0906704E0906804BF
S1133070F0906904C0916C040E94010C18161906A2
S11330800CF06FC0C370C9F48BE08093610480912D
S1133090660490916704A0916804B0916904805813
S11330A09F4EA548BF4F8093620490936304A093FE
S11330B06404B0936504C4E0DEC02EEED21A80919D
S11330C0660490916704C81AD90A609109046623BA
S11330D079F020918B0330918C03C601821B930BF2
S11330E070E06F5F7F4F0E9414276901C60ED71EE0
S11330F020916C0422FD1DC080918B0390918C0360
S11331008C199D0997FF03C091958195910990931E
S11331108E0380938D0340918F0350919003481741
S1133120590724F49093900380938F03277F20936F
S11331306C04D0928C03C0928B0310928A03109279
S1133140090480916C04982F9B7F90936C04837086
S113315009F06DC064EC77E084E591E00E94C90653
S113316066C0C0908B03D0908C030D2C000CEE082D
S1133170FF0880E092E1AAE7B0E0AC01BD014C1980
S11331805D096E097F098091660490916704A0919E
S11331906804B0916904840F951FA61FB71F80931C
S11331A0660490936704A0936804B0936904C09084
S11331B06D04D0906E04E0906F04F090700420E8E9
S11331C0C20ED11CE11CF11CC0926D04D0926E049D
S11331D0E0926F04F0927004209109042F5F209311
S11331E00904BC01CD016C567A4F8D4F9F4F44E0CA
S11331F00E94400880910904853148F0809184033D
S113320090918503806290938503809384038091D9
S11332106104853670F080918403909185038D7DDF
S1133220997F90938503809384038BE02CC0C4E042
S113323001C0C3E0C0906604D0906704E0906804C5
S1133240F090690482E1D80E8AE7E81EF11C63E07D
S113325080E00E949207C61AD70AE80AF90AC092C7
S11332606204D0926304E0926404F0926504809155
S1133270ED0280936104809184039091850391FD14
S11332800E94EF0A8C2FCF91FF90EF90DF90CF90A8
S11332900C94C317CF92DF92EF92FF920F931F9378
S11332A0CF93DF9380911D04813051F480911F04EA
S11332B0811106C06CE975E084E591E00E94C906BD
S11332C08091840387FD06C06DE975E084E591E093
S11332D00E94C90610911F04111194C080918403A7
S11332E09091850382FD1AC085FD06C062EA75E0EF
S11332F084E591E00E94C90680918403909185033E
S11333008F75909385038093840380918A038A3018
S113331018F48F5F80938A0389E060C120917A0357
S11333202F5F233019F020937A0302C010927A039E
S113333020911C042F5F20931C0420FD0EC02091BB
S11333408803222361F0E22FF0E0EA57FC4FE49176
S1133350EF3F09F0215020938803C0E001C0C1E091
S11333608F77977F90938503809384030E94E31C57
S11333706B017C018091FC029091FD02A091FE0200
S1133380B091FF02B701A601481B590B6A0B7B0BD6
S113339077FF02C06C017D018FEF90E000908803FD
S11333A002C0959587950A94E2F70E940908DC010A
S11333B0CB0184599342AD4FBF4FC80ED91EEA1EAC
S11333C0FB1EC092DD02D092DE02E092DF02F09298
S11333D0E002CC2ED12CE12CF12CC11103C0CBE1A5
S11333E0DBE102C0C5E1DBE10E94E31CAB01BC01EF
S11333F04C0D5D1D6E1D7F1D9E0180EF92E00E94AD
S1133400371DEEC0113141F0113231F080911D04AD
S113341080FF64CF80E0E5C080912004837E803209
S1133420A9F7C12FD0E08DEB92E00E944002AE01DB
S11334304150510961E274E080E00E94CB048DEBBD
S113344092E00E9440022497AE0160E274E08AE0B8
S11334500E94CB046B017C01CE01805E9B4F0E94D5
S11334609A0AC616D706E806F90681F687E294E0BA
S11334700E94760A6093EC037093ED038093EE034D
S11334809093EF0384E294E00E94760ADC01CB017E
S1133490BB278093800390938103A0938203B0930E
S11334A0830380E00E94DF09123108F04DC080914F
S11334B0CA039091CB03019720E1ECECF3E0DF0128
S11334C0322F1D923A95E9F731E03093CC0336E080
S11334D0E1E2F4E0ADECB3E001900D923A95E1F74E
S11334E08093D3039093D403ECECF3E0ACEDB3E01E
S11334F001900D922A95E1F782E08093DC038DEB35
S113350092E00E94400240E150E06CEC73E080E005
S11335100E94CB048DEB92E00E94400240E150E017
S11335206CED73E080E00E94CB0480918403909161
S1133530850384729927892B19F566EF75E084E574
S113354091E00E94C9061CC08DE2E82E84E0F82EAA
S1133550C3E0C7010E947C0AAB01BC0141155105BF
S11335606105710531F00FEF20E030E08C2F0E94EF
S1133570690DCF5F83E0E80EF11CC83051F797CF97
S1133580809184039091850385FF11C030918A0353
S113359020918803315048F0E22FF0E0EA57FC4FC5
S11335A0E491EF3FB9F32150F5CF20938803897557
S11335B09D7F909385038093840310921C040E9442
S11335C04C0780912B048F708093030480912C040A
S11335D0811101C081E08093FB0386E00E94C31740
S11335E081E0DF91CF911F910F91FF90EF90DF90D9
S11335F0CF90089580911F0481110AC02091030483
S11336004BE859E068ED78EB85E090E00C947C0899
S11336100E944A19882391F3089580911F0481110F
S113362002C010921D040C944A1988E00C94C3172C
S113363085E00C94C3170C94061280911F04882310
S113364051F084E080931D040E94F10D882319F049
S11336508DE00C94C3170C9406128091840387FDAB
S113366006C061E677E084E591E00E94C906809196
S11336701F04811198C0E0911C04EE2391F1E830FD
S113368070F5EF5FE0931C04F0E0E95AFC4F94916D
S113369080918803915048F0E82FF0E0EA57FC4FFE
S11336A0E491EF3FB9F38150F5CF60E80E94620ADC
S11336B06091E1027091E2028091E3029091E40250
S11336C043E00E94400880918403909185038F77A2
S11336D090938503809384030E94061262C080E65F
S11336E001C080E280931D048091F903803819F0B1
S11336F08F5F8093F90310921F0410921E0480912F
S11337008403909185039C0127773093850320934C
S1133710840320911D04277059F094FF09C0877712
S11337209F7E90938503809384038FE00E94C31748
S11337308AE00E94C3178091F9038931ECF08091EB
S11337408803E82FF0E0EA57FC4FE491EF3F09F0DB
S1133750815060E80E94620A8CE08093F9038091B2
S11337608403909185038062906190938503809394
S113377084038EE00E94C31780910A04882389F091
S11337809091840391FF06C082E00E94C3171092B7
S11337900A0407C0815080930A04811102C00E9468
S11337A0930981E008950E94F10D8111A8CF9091B1
S11337B01D0490FF60CF089580911F0481110EC0F5
S11337C0A091FB03B0E0119624E234EF0E94852718
S11337D02091030443E859E00C947C080E942D1BBB
S11337E0882371F3089580911F0481110BC01092F6
S11337F01D040E94E31C645973428D4F9F4F42E0A5
S11338000E9440080C942D1B0C94620ACF9380E014
S11338100E941C2180EF92E00E94E51C8DE991E05A
S1133820EDEDF2E0DF019C011D9221503040E1F703
S11338300E944720C82F0E9447202C2F30E0322FAF
S11338402227282B3093CB032093CA03109285039D
S1133850109284031092890380E88093FF031092EE
S1133860030488E096EEA3EDB3E3809304049093FD
S11338700504A0930604B093070421E02093FB03FE
S11338808093180490931904A0931A04B0931B0412
S113389083E080930C048FEF80930D04CF910895FF
S11338A00E94061C0E948B118CE00C94C31780E4C8
S11338B090E090938503809384030895809184031A
S11338C0909185039C0128603093850320938403A1
S11338D082FF10921C040C9406121F93CF93DF9363
S11338E04533B0F4122FC42FD82F6115710529F078
S11338F050E086E993E00E94192910939403D09331
S11339009303C09395030E945E1C80E090E002C084
S11339108EEF9FEFDF91CF911F910895EF92FF9269
S11339200F931F93609380037093810380938203AA
S1133930909383032093EC033093ED034093EE03C1
S11339405093EF030115110541F080E1F801ACEC4F
S1133950B3E001900D928A95E1F7E114F10441F08E
S113396080E1F701ACEDB3E001900D928A95E1F7A7
S113397080E00E94DF09809184039091850389751A
S11339809D7F986090938503809384031F910F918A
S1133990FF90EF900C944C071092FA03811102C02F
S11339A080E801C084EF8093F903089584E0EFEF89
S11339B0F1E0DF011D928A95E9F70E94E9060E9471
S11339C0D81F0C94571C0C941C06CF93DF93EC0166
S11339D00E948106E091FF01F0910002AFEFB1E097
S11339E0309769F0CE17DF0729F4888199818D9388
S11339F09C9315C0DF010190F081E02DF1CFE1E04F
S1133A00F2E080819181009751F0C817D90729F419
S1133A10888199819183808302C0FC01F2CFDF9178
S1133A20CF910C9488060F931F93CF93DF93EC01EF
S1133A308B010E948106CE010E94E51C1F830E8328
S1133A4019821882E0910102F0910202A1E0B2E031
S1133A50309729F0DF010190F081E02DF9CFCD936B
S1133A60DC93DF91CF911F910F910C948806CF9234
S1133A70DF92EF92FF920F931F93CF93DF93EC01AA
S1133A806A017B0189010E948106CE010E94E51C26
S1133A90CA82DB82EC82FD821F830E831982188224
S1133AA0E091FF01F09100022FEF31E03097A9F08F
S1133AB082819381A481B5818C199D09AE09BF09C6
S1133AC0181619061A061B061CF4F983E88305C0A8
S1133AD09F010190F081E02DE9CFF901D183C083EA
S1133AE0DF91CF911F910F91FF90EF90DF90CF90D6
S1133AF00C948806CF93DF930E948106C091010243
S1133B00D0910202209739F0888199819093020222
S1133B10809301021BC0E091FF01F09100023097F5
S1133B2099F062817381848195810E94690688235A
S1133B3059F0C091FF01D09100028881998190933E
S1133B4000028093FF0102C00E94C1060E94880601
S1133B50209731F0EE81FF81CE01DF91CF9109945E
S1133B60DF91CF910895CF93DF93D82FC62F80E0B4
S1133B700E94E2058D2F80680E9415068C2F0E94FA
S1133B80150681E0DF91CF910C94E205CF93DF938A
S1133B908091EB029091EC02D82FD77053E0969568
S1133BA087955A95E1F78370813029F070F082305F
S1133BB021F480E90BC080E809C068E471E089E879
S1133BC091E00E94C90680E001C080E76091EB02A9
S1133BD07091EC029B0145E0369527954A95E1F7F3
S1133BE02370C82F223041F0233041F0213011F0EE
S1133BF0C26005C0C46003C0C66001C0C860672F4E
S1133C0077276115710521F0C16082E20E94B31D1E
S1133C106C2F8DE10E94B31D6D2F6295607F605AF9
S1133C208091EB0287FF64608EE10E94B31DD55042
S1133C30D23068F48091EB029091EC0223E09695E7
S1133C4087952A95E1F7837011F46CE001C064E074
S1133C5086E2DF91CF910C94B31DAF92BF92CF92C5
S1133C60DF92EF92FF920F931F93CF93DF93809194
S1133C70E5029091E602A091E702B091E8029C016E
S1133C80AD0160E070E080E090E003E10E94B028C4
S1133C90A12CE8E4BE2EF8EECF2EDD24D394E12C43
S1133CA0F12C00E010E00E940C28C22FB32E6A0110
S1133CB07B01182FD92F00E10E94CB28622F86E0C8
S1133CC00E94B31D2C2F3B2DA601B701812F9D2FE0
S1133CD008E00E94CB28622F87E00E94B31D6C2F5E
S1133CE088E0DF91CF911F910F91FF90EF90DF90CB
S1133CF0CF90BF90AF900C94B31DCF93C82F80E0AA
S1133D000E94E2058C2F8F770E94150680E00E94A6
S1133D101506C82F81E00E94E2058C2FCF910895EB
S1133D20CF93C82F81E00E947D1E887F682F6C2B63
S1133D3081E0CF910C94B31DCF93C82F68E881E044
S1133D400E94B31D81E00E947D1E87FD06C061E2D2
S1133D5072E089E891E00E94C90681E00E94901E09
S1133D60C23049F46AE08DE10E94B31D60E78EE140
S1133D700E94B31D04C00E94C61D0E942D1E61E254
S1133D808CE00E94B31D60E483E20E94B31D83E3D0
S1133D900E947D1E682F606483E30E94B31D6091BE
S1133DA0ED028FE10E94B31D64E389E30E94B31D19
S1133DB060EC80E40E94B31D6FEF82E10E94B31DAA
S1133DC0EC2FF0E0E256FC4F6491609581E10E9493
S1133DD0B31D80E00E94BE05C1110CC06091E102D8
S1133DE07091E2028091E3029091E4020E94330612
S1133DF086E001C085E0CF910C94901E6091EF02A3
S1133E00613124F462301CF462E001C06FE06F7031
S1133E10606889E00E94B31D8AE50E947D1E682FB8
S1133E2064608AE50C94B31DCF93C82F81E00E948F
S1133E307D1E877031F064E972E089E891E00E94A8
S1133E40C9068091EB02877009F071C0CC2331F070
S1133E5062E672E089E891E00E94C90668E081E0C8
S1133E600E94B31D81E00E947D1E87FF06C066E6A6
S1133E7072E089E891E00E94C90681E00E94901EE8
S1133E800E942D1E61E28CE00E94B31D6EE18DE064
S1133E900E94B31D6BE082E10E94B31D62E183E1E5
S1133EA00E94B31D6AEA8FE10E94B31D62E187E2BA
S1133EB00E94B31D68ED80E30E94B31D60E481E3BA
S1133EC00E94B31D61EC88E20E94B31D64E989E29B
S1133ED00E94B31D61EC8AE20E94B31D6FEF81E280
S1133EE00E94B31D62E082E00E94B31D60E883E09B
S1133EF00E94B31D61E084E00E94B31D69E985E07E
S1133F000E94B31D68E380E40E94B31D80E00E9418
S1133F10BE056091E1027091E2028091E30290910A
S1133F20E4020E94330685E0CF910C94901E8C2FFE
S1133F30CF910C949C1E0F931F93CF93DF93D82F94
S1133F4080E00E94E20580E00E94150600E214E091
S1133F50C0E0CD1741F080E00E941506F80181937E
S1133F608F01CF5FF6CF81E0DF91CF911F910F9149
S1133F700C94E2050F931F93CF93DF93D82F80E027
S1133F800E94E20580E80E94150600E214E0C0E009
S1133F90CD1739F0F80181918F010E941506CF5F8A
S1133FA0F7CF81E0DF91CF911F910F910C94E2053F
S1133FB0AF92BF92CF92DF92EF92FF921F93CF9373
S1133FC0DF930E94810680E00E94C6050E94E31CE4
S1133FD0625C7F4F8F4F9F4F0E94330682E00E94A6
S1133FE0C6050E94E31C685C7E4F8F4F9F4F0E9462
S1133FF0330680E00E94901E82E40E947D1E82317E
S113400031F061EB72E089E891E00E94C90682E038
S11340100E949C1E81E00E947D1E87708530D1F72E
S1134020C3E0D2E092E1A92E92E0B92E88E0E82E16
S1134030F12C8CE20E947D1E182F11708CE20E94DC
S11340407D1E212F30E080FBCC24C0F8D12C2C1510
S11340503D0579F38981880F182B198381E0E81ACB
S1134060F10839F72196AC16BD0601F780E180937B
S1134070030280E00E94901EDF91CF911F91FF9078
S1134080EF90DF90CF90BF90AF900C948806CF93C1
S1134090C0910302C11107C06FED72E089E891E09D
S11340A00E94C9060AC0C03141F440E150E063E017
S11340B072E080E00E94CB04C0E0EC2FF0E0ED5F02
S11340C0FD4F8081CF5FC0930302CF910895CF92BB
S11340D0DF92EF92FF92CF930E94E31C6B017C016D
S11340E081E00E947D1E87FF64C082E10E947D1EE4
S11340F083FF0EC082E0C81AD108E108F108C0921B
S1134100DD02D092DE02E092DF02F092E00248C0CB
S113411086FF43C0E091EB02F091EC02CF0123E073
S1134120969587952A95E1F7837061F4E770F0E03E
S1134130EE0FFF1FE057FC4F85919491C81AD90ADE
S1134140E108F108C092E102D092E202E092E302B7
S1134150F092E4028DE10E947D1E82FF02C082E2A1
S113416001C083E10E947D1E80931F0480E10E94B0
S11341707D1E682F8DE00E94B31D80911F040E9454
S11341809B1F89E10E947D1E8093EA028AE10E94BE
S11341907D1E8D538093E90203C087FD10921F0496
S11341A06FEF81E10E94B31D6FEF82E10E94B31DA6
S11341B033C08EE30E947D1EC82F8FE30E947D1EB4
S11341C083FF09C0C092DD02D092DE02E092DF02DA
S11341D0F092E00221C082FF14C0C092E102D092AA
S11341E0E202E092E302F092E40282E30E947D1E86
S11341F080931F040E949B1F1092EA021092E9020E
S11342000BC0C2FF03C010921F0406C062E373E038
S113421089E891E00E94C90680E00E94901E6091A6
S1134220F6027091F70280EF92E0CF91FF90EF9049
S1134230DF90CF900C94131DCF93C82F0E9481065A
S1134240C13059F040F0C23009F4B4C0C33009F0B1
S1134250B4C081E0B0C080E06DC081E00E947D1EEA
S1134260877031F06BE072E089E891E00E94C90642
S11342708091EB02877009F060C060E181E00E94E8
S1134280B31D81E00E947D1E803131F06DEA71E042
S113429089E891E00E94C90681E00E94901E62E0D4
S11342A082E00E94B31D60E883E00E94B31D61E0D8
S11342B084E00E94B31D69E985E00E94B31D60E0BB
S11342C085E20E94B31D65E086E20E94B31D62E1AF
S11342D087E20E94B31D60ED80E30E94B31D60E499
S11342E081E30E94B31D61EC88E20E94B31D64E97E
S11342F089E20E94B31D61EC8AE20E94B31D0E9410
S11343002D1E0E94FE1E64E380E40E94B31D609192
S11343101F046F5F82E30E94B31D60911F0480E05D
S11343200E94B31D80911F040E94BA1F81E00E9465
S1134330BE0583E00E94901E40C068E881E00E94B0
S1134340B31D81E00E947D1E87FD06C069ED71E00A
S113435089E891E00E94C90681E00E94901E0E94B3
S1134360C61D0E942D1E8AE00E947D1E807F682F3C
S113437068608AE00E94B31D0E94FE1E64E389E324
S11343800E94B31D60EF80E40E94B31D6FEF82E1D1
S11343900E94B31D67EF81E10E94B31D60E08EE0CF
S11343A00E94B31D60E08DE00E94B31D60911F0464
S11343B082E2B6CF80E00E94141FCF910C9488064D
S11343C0CF93CFB7F89480911602811127C0E3ED03
S11343D0F3E08491EFEBF3E09491E82FF0E0EE0F3B
S11343E0FF1FEF50FC4FA591B491EC91E92321F408
S11343F061E08AE00E94AF2661E08AE00E947326B1
S11344008CB580618CBD8CB580648CBD61E08DE021
S11344100E94732661E08BE00E947326809116024D
S11344208F5F80931602CFBFCF910895FC01918DC9
S1134430228D892F90E0805C9F4F821B91098F739E
S113444099270895FC01918D828D981731F0828D02
S1134450E80FF11D858D90E008958FEF9FEF08958B
S1134460FC01918D828D981761F0828DDF01A80F78
S1134470B11D5D968C91928D9F5F9F73928F90E09A
S113448008958FEF9FEF0895FC01538D448D252FE0
S113449030E0842F90E0821B930B541710F0CF96DA
S11344A00895019708958FEA93E2892B49F080E0FB
S11344B090E0892B29F00E94AF2381110C94000015
S11344C00895FC01848DDF01A80FB11DA35ABF4FCD
S11344D02C91848D90E001968F739927848FA689FF
S11344E0B7892C93A089B1898C91837080648C9353
S11344F0938D848D981306C00288F389E02D808102
S11345008F7D80830895EF92FF920F931F93CF9333
S1134510DF93EC0181E0888F9B8D8C8D981305C00F
S1134520E889F989808185FD26C0F62E0B8D10E07F
S11345300F5F1F4F0F731127E02E8C8DE8120CC0F4
S11345400FB607FCFACFE889F989808185FFF5CF9A
S1134550CE010E946122F1CF8B8DFE01E80FF11D87
S1134560E35AFF4FF0829FB7F8940B8FEA89FB89D7
S1134570808180620AC09FB7F894EE89FF896083C6
S1134580E889F98980818370806480839FBF81E09A
S113459090E0DF91CF911F910F91FF90EF900895DC
S11345A0CF93DF93EC01888D8823C9F0EA89FB89D6
S11345B0808185FD05C0A889B9898C9186FD0FC0CD
S11345C00FB607FCF5CF808185FFF2CFA889B989A2
S11345D08C9185FFEDCFCE010E946122E7CFDF9160
S11345E0CF910895CF92DF92EF92FF921F93CF93D2
S11345F0DF93EC016A017B01122FE889F98982E0DB
S113460080834115514E61057105B1F060E079E098
S11346108DE390E0A70196010E942827DA01C901E1
S11346200197A109B109B695A795979587959C011E
S1134630211580E13807A8F0E889F989108260E83B
S113464074E88EE190E0A70196010E942827DA0120
S1134650C9010197A109B109B695A79597958795C1
S11346609C01EC85FD853083EE85FF852083188EC3
S1134670EC89FD891083EA89FB89808180618083CC
S1134680EA89FB89808188608083EA89FB8980814B
S113469080688083EA89FB8980818F7D8083DF91B4
S11346A0CF911F91FF90EF90DF90CF9008951F92CC
S11346B00F920FB60F9211242F938F939F93EF9322
S11346C0FF93E0912702F09128028081E0912D026E
S11346D0F0912E0282FD12C09081809130028F5F92
S11346E08F7320913102821751F0E0913002F0E093
S11346F0E95EFD4F958F8093300201C08081FF9168
S1134700EF919F918F912F910F900FBE0F901F905B
S113471018951F920F920FB60F9211242F933F9367
S11347204F935F936F937F938F939F93AF93BF93B5
S1134730EF93FF9387E192E00E946122FF91EF9152
S1134740BF91AF919F918F917F916F915F914F91A5
S11347503F912F910F900FBE0F901F90189587E1F6
S113476092E00E94162221E0892B09F420E0822F96
S11347700895E7E1F2E01382128288EE93E0A0E06C
S1134780B0E084839583A683B78383EC91E091831F
S1134790808385EC90E09587848784EC90E097870C
S11347A0868780EC90E0918B808B81EC90E0938BFA
S11347B0828B82EC90E0958B848B86EC90E0978BD7
S11347C0868B118E128E138E148E089508950E9476
S11347D00F260E94E6230E94C702C3E5D2E20E948C
S11347E033032097E1F30E945322F9CFCF92DF9253
S11347F0EF92FF920F931F93CF93DF936C017A0193
S11348008B01C0E0D0E0CE15DF0581F0D8016D91B9
S11348108D01D601ED91FC910190F081E02DC6014E
S11348200995892B11F02196EECF7E01C701DF9106
S1134830CF911F910F91FF90EF90DF90CF9008954B
S11348406115710579F0FB0101900020E9F73197BA
S1134850AF01461B570BDC01ED91FC910280F38103
S1134860E02D099480E090E00895EF92FF920F9379
S11348701F93CF93DF938C017B01C0E0D0E0F7015D
S1134880EC0FFD1F6491662361F0D801ED91FC915A
S11348900190F081E02DC8010995892B11F0219632
S11348A0EECFCE01DF91CF911F910F91FF90EF904A
S11348B008950C942024DC01ED91FC910190F08189
S11348C0E02D099461ED71E00C9420240F931F9363
S11348D0CF93DF93EC010E9435248C01CE010E941A
S11348E06224800F911FDF91CF911F910F91089542
S11348F00F931F93CF93DF93EC010E9420248C012C
S1134900CE010E946224800F911FDF91CF911F91ED
S11349100F9108958F929F92AF92BF92EF92FF9260
S11349200F931F93CF93DF93CDB7DEB7A1970FB645
S1134930F894DEBF0FBECDBF7C01FA01CB0119A2F2
S1134940223008F42AE08E010F5D1F4F822E912C35
S1134950A12CB12CBF01A50194010E942827F901C3
S1134960CA01015011096A3010F4605D01C0695C2C
S1134970D8016C93232B242B252B61F7B801C70195
S11349800E942024A1960FB6F894DEBF0FBECDBFBF
S1134990DF91CF911F910F91FF90EF90BF90AF9057
S11349A09F908F9008952115310541F4DC01ED911C
S11349B0FC910190F081E02D642F09940C948A24D9
S11349C09A01462F50E060E070E00C94D3240F93DA
S11349D01F93CF93DF93EC010E94E0248C01CE015E
S11349E00E946224800F911FDF91CF911F910F913C
S11349F008959A01AB0160E070E00C94D3240F9306
S1134A001F93CF93DF93EC010E94F9248C01CE0114
S1134A100E946224800F911FDF91CF911F910F910B
S1134A200895CF92DF92EF92FF920F931F93CF934B
S1134A30DF932115310581F4DC01ED91FC910190A6
S1134A40F081E02D642FDF91CF911F910F91FF90A2
S1134A50EF90DF90CF9009942A30310501F577FF6C
S1134A601DC06A017B01EC016DE20E945B248C0194
S1134A7044275527BA014C195D096E097F092AE0BC
S1134A80CE010E948A24800F911FDF91CF911F9144
S1134A900F91FF90EF90DF90CF9008952AE0DF917F
S1134AA0CF911F910F91FF90EF90DF90CF900C94D6
S1134AB08A241F920F920FB60F9211242F933F93C3
S1134AC08F939F93AF93BF938091B5029091B60259
S1134AD0A091B702B091B8023091B40223E0230F41
S1134AE02D3720F40196A11DB11D05C026E8230F22
S1134AF00296A11DB11D2093B4028093B502909338
S1134B00B602A093B702B093B8028091B902909113
S1134B10BA02A091BB02B091BC020196A11DB11DC5
S1134B208093B9029093BA02A093BB02B093BC02E3
S1134B30BF91AF919F918F913F912F910F900FBE95
S1134B400F901F9018953FB7F8948091B9029091F7
S1134B50BA02A091BB02B091BC0226B5A89B05C0C5
S1134B602F3F19F00196A11DB11D3FBFBA2FA92FE8
S1134B70982F8827820F911DA11DB11DBC01CD0165
S1134B8042E0660F771F881F991F4A95D1F7089551
S1134B908F929F92AF92BF92CF92DF92EF92FF9249
S1134BA06B017C010E94A3254B015C01C114D1045B
S1134BB0E104F10401F10E9407270E94A325DC010E
S1134BC0CB0188199909AA09BB09883E9340A1051C
S1134BD0B10560F321E0C21AD108E108F10888EEBA
S1134BE0880E83E0981EA11CB11CC114D104E104F9
S1134BF0F10419F7DBCFFF90EF90DF90CF90BF90D7
S1134C00AF909F908F9008958230910538F0880F6F
S1134C10991F880F991F05970197F1F708957894C4
S1134C2084B5826084BD84B5816084BD85B58260AD
S1134C3085BD85B5816085BDEEE6F0E0808181604B
S1134C408083E1E8F0E0108280818260808380814B
S1134C5081608083E0E8F0E0808181608083E1EB23
S1134C60F0E0808184608083E0EBF0E0808181600B
S1134C708083EAE7F0E080818460808380818260C1
S1134C8080838081816080838081806880831092AA
S1134C90C1000895833081F028F4813099F0823086
S1134CA0A1F008958730A9F08830B9F08430D1F4A8
S1134CB0809180008F7D03C0809180008F778093E6
S1134CC08000089584B58F7702C084B58F7D84BD3C
S1134CD008958091B0008F7703C08091B0008F7DDC
S1134CE08093B0000895CF93DF9390E0FC01EB54E0
S1134CF0FC4F2491FC01E753FC4F8491882361F11C
S1134D0090E0880F991FFC01EF50FC4FC591D4919E
S1134D10FC01E951FC4FA591B491611109C09FB701
S1134D20F8948881209582238883EC912E230BC0EC
S1134D30623061F49FB7F8948881322F30958323D1
S1134D408883EC912E2B2C939FBF06C08FB7F894C9
S1134D50E8812E2B28838FBFDF91CF9108951F9375
S1134D60CF93DF93282F30E0F901EF55FC4F849166
S1134D70F901EB54FC4FD491F901E753FC4FC49172
S1134D80CC23C1F0162F81110E944A26EC2FF0E0AB
S1134D90EE0FFF1FE951FC4FA591B4919FB7F89412
S1134DA0111104C08C91D095D82302C0EC91DE2B54
S1134DB0DC939FBFDF91CF911F910895CF93DF9331
S1134DC0282F30E0F901EF55FC4F8491F901EB54A1
S1134DD0FC4FD491F901E753FC4FC491CC2391F0DB
S1134DE081110E944A26EC2FF0E0EE0FFF1FE352E0
S1134DF0FC4FA591B491EC91ED2381E090E021F476
S1134E0080E002C080E090E0DF91CF9108950895A2
S1134E10991B79E004C0991F961708F0961B881F08
S1134E207A95C9F78095089597FB072E16F4009498
S1134E3007D077FD09D00E94F32807FC05D03EF483
S1134E40909581959F4F0895709561957F4F089532
S1134E50A1E21A2EAA1BBB1BFD010DC0AA1FBB1F7A
S1134E60EE1FFF1FA217B307E407F50720F0A21BEC
S1134E70B30BE40BF50B661F771F881F991F1A9459
S1134E8069F760957095809590959B01AC01BD0183
S1134E90CF010895052E97FB1EF400940E9461270C
S1134EA057FD07D00E94282707FC03D04EF40C942A
S1134EB0612750954095309521953F4F4F4F5F4F57
S1134EC0089590958095709561957F4F8F4F9F4F72
S1134ED00895EE0FFF1F0590F491E02D09946927C2
S1134EE0962769277827872778270895A29FB001F6
S1134EF0B39FC001A39F700D811D1124911DB29F0A
S1134F00700D811D1124911D08950E947627B7FF0D
S1134F100895821B930B08950E947627A59F900DF8
S1134F20B49F900DA49F800D911D11240895B7FF87
S1134F300C948C270E948C27821B930B089597FB5B
S1134F4057FF0C94AF279F938F930E94AF276E1B3C
S1134F507F0BAF91BF918A0B9B0B0895E894DF936D
S1134F60CF93FC01DB010E9476277F936F93E901C5
S1134F709A01AC01BF93AF933F932F93DF010E943B
S1134F80762726F46C1B7D0B820B930B9E01EB01A1
S1134F90FC010E940729AF91BF912F913F910E947C
S1134FA00729BE01CF01F9012F913F91CF91DF91E4
S1134FB00895689401C0E894F92FF12B12F00C9431
S1134FC00D28A0E0B0E0E7EEF7E20C947F28092E6C
S1134FD0059422F40E946928112392F4F0E80F2624
S1134FE0FFEFE094F09400951095B094C094D094A1
S1134FF0A194BF0ACF0ADF0AEF0AFF0A0F0B1F0BA7
S11350000E94182807FC0E946928CDB7DEB7ECE09F
S11350100C949B28689401C0E8948F929F92CF933C
S1135020DF930E941828DF91CF919F908F9008956D
S113503088249924F401E401B0E49F93AA279A15E3
S11350408B049C04ED05FE05CF05D007A10798F459
S1135050AD2FDC2FCF2FFE2FE92D982C892E982FE2
S1135060872F762F652F542F432F322F2227B850A6
S113507031F7BF9127C01B2EBF91BB27220F331FCF
S1135080441F551F661F771F881F991F881C991C72
S1135090EE1FFF1FCC1FDD1FAA1FBB1F8A149B041A
S11350A0EC05FD05CE05DF05A007B10748F08A1819
S11350B09B08EC09FD09CE09DF09A00BB10B2160A7
S11350C01A94E1F62EF49401AF01BE01CD01000C57
S11350D0089560957095809590953095409550957C
S11350E021953F4F4F4F5F4F6F4F7F4F8F4F9F4FD4
S11350F008952F923F924F925F926F927F928F9278
S11351009F92AF92BF92CF92DF92EF92FF920F9352
S11351101F93CF93DF93CDB7DEB7CA1BDB0B0FB65C
S1135120F894DEBF0FBECDBF09942A883988488819
S11351305F846E847D848C849B84AA84B984C884AF
S1135140DF80EE80FD800C811B81AA81B981CE0FA6
S1135150D11D0FB6F894DEBF0FBECDBFED0108958B
S11351600F93083090F0982F872F762F652F542FA8
S1135170432F322F22270850F4CF220F331F441F0E
S1135180551F661F771F881F991F0A95B2F70F9145
S1135190089597FB10F8169400080F93083098F0C0
S11351A00850232F342F452F562F672F782F892F00
S11351B0902DF4CF05949795879577956795579596
S11351C04795379527950A95AAF70F9108950024D6
S11351D0A7FD00942A1730054005500560057005A9
S11351E0800590050895AA1BBB1B51E107C0AA1FA7
S11351F0BB1FA617B70710F0A61BB70B881F991F74
S11352005A95A9F780959095BC01CD0108950E9407
S11352107627460F571FC81FD91F08F431960895E3
S1135220FB01DC0102C005900D9241505040D8F7BB
S11352300895FB01DC0102C001900D9241505040E1
S10B5240D8F70895F894FFCF9C
S113524868656C6C6F20776F726C6421003A20007B
S11352580AFF090206074641494C55524520002ECB
S11352682E2F7372632F6C69627261726965732F72
S113527861726475696E6F2D6C6D69632D6D6173F0
S11352887465722F7372632F68616C2F68616C2E5A
S1135298637070002E2E2F7372632F6C69627261B3
S11352A8726965732F61726475696E6F2D6C6D69AF
S11352B8632D6D61737465722F7372632F6C6D69DE
S11352C8632F6C6D69632E63002E2E2F7372632F08
S11352D86C69627261726965732F61726475696E53
S11352E86F2D6C6D69632D6D61737465722F7372A4
S11352F8632F6C6D69632F726164696F2E6300009C
S11353080000008322F6234422D0221622302222CF
S1135318220D0A006E616E00696E66006F76660083
S9030000FC
